{
    "_format": "hh-sol-artifact-1",
    "contractName": "Faucet",
    "sourceName": "contracts/helpers/Faucet.sol",
    "abi": [
        {
            "inputs": [],
            "stateMutability": "nonpayable",
            "type": "constructor"
        },
        {
            "inputs": [
                {
                    "internalType": "address[]",
                    "name": "tokens",
                    "type": "address[]"
                },
                {
                    "internalType": "uint256[]",
                    "name": "amounts",
                    "type": "uint256[]"
                },
                {
                    "internalType": "address",
                    "name": "who",
                    "type": "address"
                }
            ],
            "name": "drip",
            "outputs": [
                {
                    "internalType": "bool",
                    "name": "",
                    "type": "bool"
                }
            ],
            "stateMutability": "nonpayable",
            "type": "function"
        }
    ],
    "bytecode": "0x608060405234801561001057600080fd5b506103f4806100206000396000f3fe608060405234801561001057600080fd5b506004361061002b5760003560e01c80633762f25814610030575b600080fd5b61004361003e36600461026a565b610057565b604051901515815260200160405180910390f35b60008483146100c6576040517f08c379a000000000000000000000000000000000000000000000000000000000815260206004820152600f60248201527f496e76616c6964206c656e677468730000000000000000000000000000000000604482015260640160405180910390fd5b6000855b808210156101e7578787838181106100e4576100e46102eb565b90506020020160208101906100f9919061031a565b73ffffffffffffffffffffffffffffffffffffffff166340c10f198588886000818110610128576101286102eb565b6040517fffffffff0000000000000000000000000000000000000000000000000000000060e087901b16815273ffffffffffffffffffffffffffffffffffffffff90941660048501526020029190910135602483015250604401602060405180830381600087803b15801561019c57600080fd5b505af11580156101b0573d6000803e3d6000fd5b505050506040513d601f19601f820116820180604052508101906101d4919061033c565b50816101df8161035e565b9250506100ca565b506001979650505050505050565b60008083601f84011261020757600080fd5b50813567ffffffffffffffff81111561021f57600080fd5b6020830191508360208260051b850101111561023a57600080fd5b9250929050565b803573ffffffffffffffffffffffffffffffffffffffff8116811461026557600080fd5b919050565b60008060008060006060868803121561028257600080fd5b853567ffffffffffffffff8082111561029a57600080fd5b6102a689838a016101f5565b909750955060208801359150808211156102bf57600080fd5b506102cc888289016101f5565b90945092506102df905060408701610241565b90509295509295909350565b7f4e487b7100000000000000000000000000000000000000000000000000000000600052603260045260246000fd5b60006020828403121561032c57600080fd5b61033582610241565b9392505050565b60006020828403121561034e57600080fd5b8151801515811461033557600080fd5b60007fffffffffffffffffffffffffffffffffffffffffffffffffffffffffffffffff8214156103b7577f4e487b7100000000000000000000000000000000000000000000000000000000600052601160045260246000fd5b506001019056fea2646970667358221220dbeeedbf94f87893f64b576f3cd036a0296a20bb2abdef0a06be2f20080e4abf64736f6c63430008090033",
    "linkReferences": {},
    "deployedLinkReferences": {}
}