{
    "_format": "hh-sol-artifact-1",
    "contractName": "RewardControl",
    "sourceName": "contracts/RewardControl.sol",
    "abi": [
        {
            "inputs": [
                {
                    "internalType": "address",
                    "name": "deltaVerified_",
                    "type": "address"
                },
                {
                    "internalType": "address",
                    "name": "deltaOpen_",
                    "type": "address"
                },
                {
                    "internalType": "address",
                    "name": "dltAddress_",
                    "type": "address"
                }
            ],
            "stateMutability": "nonpayable",
            "type": "constructor"
        },
        {
            "anonymous": false,
            "inputs": [
                {
                    "indexed": true,
                    "internalType": "address",
                    "name": "market",
                    "type": "address"
                },
                {
                    "indexed": true,
                    "internalType": "address",
                    "name": "borrower",
                    "type": "address"
                },
                {
                    "indexed": false,
                    "internalType": "uint256",
                    "name": "borrowerDelta",
                    "type": "uint256"
                },
                {
                    "indexed": false,
                    "internalType": "uint256",
                    "name": "borrowerAccruedDlt",
                    "type": "uint256"
                },
                {
                    "indexed": false,
                    "internalType": "uint256",
                    "name": "borrowIndexMantissa",
                    "type": "uint256"
                },
                {
                    "indexed": false,
                    "internalType": "bool",
                    "name": "isVerified",
                    "type": "bool"
                }
            ],
            "name": "DistributedBorrowerDlt",
            "type": "event"
        },
        {
            "anonymous": false,
            "inputs": [
                {
                    "indexed": true,
                    "internalType": "address",
                    "name": "market",
                    "type": "address"
                },
                {
                    "indexed": true,
                    "internalType": "address",
                    "name": "supplier",
                    "type": "address"
                },
                {
                    "indexed": false,
                    "internalType": "uint256",
                    "name": "supplierDelta",
                    "type": "uint256"
                },
                {
                    "indexed": false,
                    "internalType": "uint256",
                    "name": "supplierAccruedDlt",
                    "type": "uint256"
                },
                {
                    "indexed": false,
                    "internalType": "uint256",
                    "name": "supplyIndexMantissa",
                    "type": "uint256"
                },
                {
                    "indexed": false,
                    "internalType": "bool",
                    "name": "isVerified",
                    "type": "bool"
                }
            ],
            "name": "DistributedSupplierDlt",
            "type": "event"
        },
        {
            "anonymous": false,
            "inputs": [
                {
                    "indexed": true,
                    "internalType": "address",
                    "name": "market",
                    "type": "address"
                },
                {
                    "indexed": false,
                    "internalType": "uint256",
                    "name": "newSpeed",
                    "type": "uint256"
                },
                {
                    "indexed": false,
                    "internalType": "bool",
                    "name": "isVerified",
                    "type": "bool"
                }
            ],
            "name": "DltSpeedUpdated",
            "type": "event"
        },
        {
            "anonymous": false,
            "inputs": [
                {
                    "indexed": true,
                    "internalType": "address",
                    "name": "market",
                    "type": "address"
                },
                {
                    "indexed": false,
                    "internalType": "uint256",
                    "name": "numberOfMarkets",
                    "type": "uint256"
                },
                {
                    "indexed": false,
                    "internalType": "bool",
                    "name": "isVerified",
                    "type": "bool"
                }
            ],
            "name": "MarketAdded",
            "type": "event"
        },
        {
            "anonymous": false,
            "inputs": [
                {
                    "indexed": true,
                    "internalType": "address",
                    "name": "market",
                    "type": "address"
                },
                {
                    "indexed": false,
                    "internalType": "uint256",
                    "name": "numberOfMarkets",
                    "type": "uint256"
                },
                {
                    "indexed": false,
                    "internalType": "bool",
                    "name": "isVerified",
                    "type": "bool"
                }
            ],
            "name": "MarketRemoved",
            "type": "event"
        },
        {
            "anonymous": false,
            "inputs": [
                {
                    "indexed": true,
                    "internalType": "address",
                    "name": "owner",
                    "type": "address"
                },
                {
                    "indexed": true,
                    "internalType": "address",
                    "name": "newOwner",
                    "type": "address"
                }
            ],
            "name": "OwnerUpdate",
            "type": "event"
        },
        {
            "anonymous": false,
            "inputs": [
                {
                    "indexed": true,
                    "internalType": "address",
                    "name": "participant",
                    "type": "address"
                },
                {
                    "indexed": false,
                    "internalType": "uint256",
                    "name": "participantAccrued",
                    "type": "uint256"
                },
                {
                    "indexed": false,
                    "internalType": "address",
                    "name": "market",
                    "type": "address"
                },
                {
                    "indexed": false,
                    "internalType": "bool",
                    "name": "isVerified",
                    "type": "bool"
                }
            ],
            "name": "TransferredDlt",
            "type": "event"
        },
        {
            "inputs": [],
            "name": "MAXIMUM_NUMBER_OF_MARKETS",
            "outputs": [
                {
                    "internalType": "uint8",
                    "name": "",
                    "type": "uint8"
                }
            ],
            "stateMutability": "view",
            "type": "function"
        },
        {
            "inputs": [
                {
                    "internalType": "address",
                    "name": "market",
                    "type": "address"
                },
                {
                    "internalType": "bool",
                    "name": "isVerified",
                    "type": "bool"
                }
            ],
            "name": "addMarket",
            "outputs": [],
            "stateMutability": "nonpayable",
            "type": "function"
        },
        {
            "inputs": [
                {
                    "internalType": "bool",
                    "name": "",
                    "type": "bool"
                },
                {
                    "internalType": "uint256",
                    "name": "",
                    "type": "uint256"
                }
            ],
            "name": "allMarkets",
            "outputs": [
                {
                    "internalType": "address",
                    "name": "",
                    "type": "address"
                }
            ],
            "stateMutability": "view",
            "type": "function"
        },
        {
            "inputs": [
                {
                    "internalType": "bool",
                    "name": "",
                    "type": "bool"
                },
                {
                    "internalType": "address",
                    "name": "",
                    "type": "address"
                }
            ],
            "name": "allMarketsIndex",
            "outputs": [
                {
                    "internalType": "bool",
                    "name": "",
                    "type": "bool"
                }
            ],
            "stateMutability": "view",
            "type": "function"
        },
        {
            "inputs": [
                {
                    "internalType": "address",
                    "name": "holder",
                    "type": "address"
                }
            ],
            "name": "claimDlt",
            "outputs": [],
            "stateMutability": "nonpayable",
            "type": "function"
        },
        {
            "inputs": [
                {
                    "internalType": "address",
                    "name": "holder",
                    "type": "address"
                },
                {
                    "internalType": "address",
                    "name": "market",
                    "type": "address"
                },
                {
                    "internalType": "bool",
                    "name": "isVerified",
                    "type": "bool"
                }
            ],
            "name": "claimDlt",
            "outputs": [],
            "stateMutability": "nonpayable",
            "type": "function"
        },
        {
            "inputs": [],
            "name": "deltaOpen",
            "outputs": [
                {
                    "internalType": "contract DeltaOpen",
                    "name": "",
                    "type": "address"
                }
            ],
            "stateMutability": "view",
            "type": "function"
        },
        {
            "inputs": [],
            "name": "deltaVerified",
            "outputs": [
                {
                    "internalType": "contract DeltaVerified",
                    "name": "",
                    "type": "address"
                }
            ],
            "stateMutability": "view",
            "type": "function"
        },
        {
            "inputs": [
                {
                    "internalType": "address",
                    "name": "market",
                    "type": "address"
                },
                {
                    "internalType": "address",
                    "name": "borrower",
                    "type": "address"
                },
                {
                    "internalType": "bool",
                    "name": "isVerified",
                    "type": "bool"
                }
            ],
            "name": "distributeBorrowerDlt",
            "outputs": [],
            "stateMutability": "nonpayable",
            "type": "function"
        },
        {
            "inputs": [
                {
                    "internalType": "address",
                    "name": "market",
                    "type": "address"
                },
                {
                    "internalType": "address",
                    "name": "supplier",
                    "type": "address"
                },
                {
                    "internalType": "bool",
                    "name": "isVerified",
                    "type": "bool"
                }
            ],
            "name": "distributeSupplierDlt",
            "outputs": [],
            "stateMutability": "nonpayable",
            "type": "function"
        },
        {
            "inputs": [
                {
                    "internalType": "address",
                    "name": "",
                    "type": "address"
                }
            ],
            "name": "dltAccrued",
            "outputs": [
                {
                    "internalType": "uint256",
                    "name": "",
                    "type": "uint256"
                }
            ],
            "stateMutability": "view",
            "type": "function"
        },
        {
            "inputs": [],
            "name": "dltAddress",
            "outputs": [
                {
                    "internalType": "address",
                    "name": "",
                    "type": "address"
                }
            ],
            "stateMutability": "view",
            "type": "function"
        },
        {
            "inputs": [
                {
                    "internalType": "bool",
                    "name": "",
                    "type": "bool"
                },
                {
                    "internalType": "address",
                    "name": "",
                    "type": "address"
                }
            ],
            "name": "dltBorrowState",
            "outputs": [
                {
                    "internalType": "uint224",
                    "name": "index",
                    "type": "uint224"
                },
                {
                    "internalType": "uint32",
                    "name": "block",
                    "type": "uint32"
                }
            ],
            "stateMutability": "view",
            "type": "function"
        },
        {
            "inputs": [
                {
                    "internalType": "bool",
                    "name": "",
                    "type": "bool"
                },
                {
                    "internalType": "address",
                    "name": "",
                    "type": "address"
                },
                {
                    "internalType": "address",
                    "name": "",
                    "type": "address"
                }
            ],
            "name": "dltBorrowerIndex",
            "outputs": [
                {
                    "internalType": "uint256",
                    "name": "",
                    "type": "uint256"
                }
            ],
            "stateMutability": "view",
            "type": "function"
        },
        {
            "inputs": [],
            "name": "dltRate",
            "outputs": [
                {
                    "internalType": "uint256",
                    "name": "",
                    "type": "uint256"
                }
            ],
            "stateMutability": "view",
            "type": "function"
        },
        {
            "inputs": [
                {
                    "internalType": "bool",
                    "name": "",
                    "type": "bool"
                },
                {
                    "internalType": "address",
                    "name": "",
                    "type": "address"
                }
            ],
            "name": "dltSpeeds",
            "outputs": [
                {
                    "internalType": "uint256",
                    "name": "",
                    "type": "uint256"
                }
            ],
            "stateMutability": "view",
            "type": "function"
        },
        {
            "inputs": [
                {
                    "internalType": "bool",
                    "name": "",
                    "type": "bool"
                },
                {
                    "internalType": "address",
                    "name": "",
                    "type": "address"
                },
                {
                    "internalType": "address",
                    "name": "",
                    "type": "address"
                }
            ],
            "name": "dltSupplierIndex",
            "outputs": [
                {
                    "internalType": "uint256",
                    "name": "",
                    "type": "uint256"
                }
            ],
            "stateMutability": "view",
            "type": "function"
        },
        {
            "inputs": [
                {
                    "internalType": "bool",
                    "name": "",
                    "type": "bool"
                },
                {
                    "internalType": "address",
                    "name": "",
                    "type": "address"
                }
            ],
            "name": "dltSupplyState",
            "outputs": [
                {
                    "internalType": "uint224",
                    "name": "index",
                    "type": "uint224"
                },
                {
                    "internalType": "uint32",
                    "name": "block",
                    "type": "uint32"
                }
            ],
            "stateMutability": "view",
            "type": "function"
        },
        {
            "inputs": [
                {
                    "internalType": "address",
                    "name": "market",
                    "type": "address"
                },
                {
                    "internalType": "address",
                    "name": "borrower",
                    "type": "address"
                },
                {
                    "internalType": "bool",
                    "name": "isVerified",
                    "type": "bool"
                }
            ],
            "name": "getBorrowBalanceWithInterest",
            "outputs": [
                {
                    "internalType": "uint256",
                    "name": "",
                    "type": "uint256"
                }
            ],
            "stateMutability": "view",
            "type": "function"
        },
        {
            "inputs": [],
            "name": "getDeltaAddresses",
            "outputs": [
                {
                    "internalType": "address",
                    "name": "",
                    "type": "address"
                },
                {
                    "internalType": "address",
                    "name": "",
                    "type": "address"
                }
            ],
            "stateMutability": "view",
            "type": "function"
        },
        {
            "inputs": [
                {
                    "internalType": "address",
                    "name": "participant",
                    "type": "address"
                }
            ],
            "name": "getDltAccrued",
            "outputs": [
                {
                    "internalType": "uint256",
                    "name": "",
                    "type": "uint256"
                }
            ],
            "stateMutability": "view",
            "type": "function"
        },
        {
            "inputs": [
                {
                    "internalType": "address",
                    "name": "user",
                    "type": "address"
                }
            ],
            "name": "getDltRewards",
            "outputs": [
                {
                    "internalType": "uint256",
                    "name": "",
                    "type": "uint256"
                }
            ],
            "stateMutability": "view",
            "type": "function"
        },
        {
            "inputs": [
                {
                    "internalType": "address",
                    "name": "market",
                    "type": "address"
                },
                {
                    "internalType": "bool",
                    "name": "isVerified",
                    "type": "bool"
                }
            ],
            "name": "getMarketStats",
            "outputs": [
                {
                    "internalType": "bool",
                    "name": "isSupported",
                    "type": "bool"
                },
                {
                    "internalType": "uint256",
                    "name": "blockNumber",
                    "type": "uint256"
                },
                {
                    "internalType": "address",
                    "name": "interestRateModel",
                    "type": "address"
                },
                {
                    "internalType": "uint256",
                    "name": "totalSupply",
                    "type": "uint256"
                },
                {
                    "internalType": "uint256",
                    "name": "supplyRateMantissa",
                    "type": "uint256"
                },
                {
                    "internalType": "uint256",
                    "name": "supplyIndex",
                    "type": "uint256"
                },
                {
                    "internalType": "uint256",
                    "name": "totalBorrows",
                    "type": "uint256"
                },
                {
                    "internalType": "uint256",
                    "name": "borrowRateMantissa",
                    "type": "uint256"
                },
                {
                    "internalType": "uint256",
                    "name": "borrowIndex",
                    "type": "uint256"
                }
            ],
            "stateMutability": "view",
            "type": "function"
        },
        {
            "inputs": [
                {
                    "internalType": "address",
                    "name": "market",
                    "type": "address"
                },
                {
                    "internalType": "bool",
                    "name": "isVerified",
                    "type": "bool"
                }
            ],
            "name": "getMarketTotalBorrows",
            "outputs": [
                {
                    "internalType": "uint256",
                    "name": "",
                    "type": "uint256"
                }
            ],
            "stateMutability": "view",
            "type": "function"
        },
        {
            "inputs": [
                {
                    "internalType": "address",
                    "name": "market",
                    "type": "address"
                },
                {
                    "internalType": "bool",
                    "name": "isVerified",
                    "type": "bool"
                }
            ],
            "name": "getMarketTotalSupply",
            "outputs": [
                {
                    "internalType": "uint256",
                    "name": "",
                    "type": "uint256"
                }
            ],
            "stateMutability": "view",
            "type": "function"
        },
        {
            "inputs": [
                {
                    "internalType": "address",
                    "name": "market",
                    "type": "address"
                },
                {
                    "internalType": "address",
                    "name": "supplier",
                    "type": "address"
                },
                {
                    "internalType": "bool",
                    "name": "isVerified",
                    "type": "bool"
                }
            ],
            "name": "getSupplyBalanceWithInterest",
            "outputs": [
                {
                    "internalType": "uint256",
                    "name": "",
                    "type": "uint256"
                }
            ],
            "stateMutability": "view",
            "type": "function"
        },
        {
            "inputs": [],
            "name": "initializationDone",
            "outputs": [
                {
                    "internalType": "bool",
                    "name": "",
                    "type": "bool"
                }
            ],
            "stateMutability": "view",
            "type": "function"
        },
        {
            "inputs": [],
            "name": "owner",
            "outputs": [
                {
                    "internalType": "address",
                    "name": "",
                    "type": "address"
                }
            ],
            "stateMutability": "view",
            "type": "function"
        },
        {
            "inputs": [
                {
                    "internalType": "address",
                    "name": "market",
                    "type": "address"
                },
                {
                    "internalType": "address",
                    "name": "borrower",
                    "type": "address"
                },
                {
                    "internalType": "bool",
                    "name": "isVerified",
                    "type": "bool"
                }
            ],
            "name": "refreshDltBorrowIndex",
            "outputs": [],
            "stateMutability": "nonpayable",
            "type": "function"
        },
        {
            "inputs": [],
            "name": "refreshDltSpeeds",
            "outputs": [],
            "stateMutability": "nonpayable",
            "type": "function"
        },
        {
            "inputs": [
                {
                    "internalType": "address",
                    "name": "market",
                    "type": "address"
                },
                {
                    "internalType": "address",
                    "name": "supplier",
                    "type": "address"
                },
                {
                    "internalType": "bool",
                    "name": "isVerified",
                    "type": "bool"
                }
            ],
            "name": "refreshDltSupplyIndex",
            "outputs": [],
            "stateMutability": "nonpayable",
            "type": "function"
        },
        {
            "inputs": [
                {
                    "internalType": "uint256",
                    "name": "id",
                    "type": "uint256"
                },
                {
                    "internalType": "bool",
                    "name": "isVerified",
                    "type": "bool"
                }
            ],
            "name": "removeMarket",
            "outputs": [],
            "stateMutability": "nonpayable",
            "type": "function"
        },
        {
            "inputs": [
                {
                    "internalType": "address",
                    "name": "deltaOpen_",
                    "type": "address"
                }
            ],
            "name": "setDeltaOpen",
            "outputs": [],
            "stateMutability": "nonpayable",
            "type": "function"
        },
        {
            "inputs": [
                {
                    "internalType": "address",
                    "name": "deltaVerified_",
                    "type": "address"
                }
            ],
            "name": "setDeltaVerified",
            "outputs": [],
            "stateMutability": "nonpayable",
            "type": "function"
        },
        {
            "inputs": [
                {
                    "internalType": "address",
                    "name": "dltAddress_",
                    "type": "address"
                }
            ],
            "name": "setDltAddress",
            "outputs": [],
            "stateMutability": "nonpayable",
            "type": "function"
        },
        {
            "inputs": [
                {
                    "internalType": "uint256",
                    "name": "_dltRate",
                    "type": "uint256"
                }
            ],
            "name": "setDltRate",
            "outputs": [],
            "stateMutability": "nonpayable",
            "type": "function"
        },
        {
            "inputs": [
                {
                    "internalType": "address",
                    "name": "newOwner_",
                    "type": "address"
                }
            ],
            "name": "transferOwnership",
            "outputs": [],
            "stateMutability": "nonpayable",
            "type": "function"
        },
        {
            "inputs": [
                {
                    "internalType": "address",
                    "name": "market",
                    "type": "address"
                },
                {
                    "internalType": "bool",
                    "name": "isVerified",
                    "type": "bool"
                }
            ],
            "name": "updateDltBorrowIndex",
            "outputs": [],
            "stateMutability": "nonpayable",
            "type": "function"
        },
        {
            "inputs": [
                {
                    "internalType": "address",
                    "name": "market",
                    "type": "address"
                },
                {
                    "internalType": "bool",
                    "name": "isVerified",
                    "type": "bool"
                }
            ],
            "name": "updateDltSupplyIndex",
            "outputs": [],
            "stateMutability": "nonpayable",
            "type": "function"
        }
    ],
    "bytecode": "0x60806040523480156200001157600080fd5b5060405162003fdd38038062003fdd833981016040819052620000349162000306565b6001600160a01b038316158015906200005557506001600160a01b03821615155b80156200006a57506001600160a01b03811615155b620000bc5760405162461bcd60e51b815260206004820152601560248201527f496e707574732063616e6e6f742062652030783030000000000000000000000060448201526064015b60405180910390fd5b60098054610100600160a81b0319163361010002179055620000de8262000123565b620000e98362000123565b620000f481620001dd565b6200010767333651b00e394b7062000297565b5050600c805460ff60a01b1916600160a41b1790555062000350565b60095461010090046001600160a01b03163314620001705760405162461bcd60e51b81526020600482015260096024820152683737b716b7bbb732b960b91b6044820152606401620000b3565b6001600160a01b038116620001bb5760405162461bcd60e51b815260206004820152601060248201526f4164647265737320697320656d70747960801b6044820152606401620000b3565b600b80546001600160a01b0319166001600160a01b0392909216919091179055565b60095461010090046001600160a01b031633146200022a5760405162461bcd60e51b81526020600482015260096024820152683737b716b7bbb732b960b91b6044820152606401620000b3565b6001600160a01b038116620002755760405162461bcd60e51b815260206004820152601060248201526f4164647265737320697320656d70747960801b6044820152606401620000b3565b600c80546001600160a01b0319166001600160a01b0392909216919091179055565b60095461010090046001600160a01b03163314620002e45760405162461bcd60e51b81526020600482015260096024820152683737b716b7bbb732b960b91b6044820152606401620000b3565b600255565b80516001600160a01b03811681146200030157600080fd5b919050565b6000806000606084860312156200031c57600080fd5b6200032784620002e9565b92506200033760208501620002e9565b91506200034760408501620002e9565b90509250925092565b613c7d80620003606000396000f3fe608060405234801561001057600080fd5b50600436106102ad5760003560e01c80639e5d7e421161017b578063cbb40ff7116100d8578063deb66f0a1161008c578063f2fde38b11610071578063f2fde38b14610785578063fd778df514610798578063fe655382146107c357600080fd5b8063deb66f0a1461075f578063e77682721461077257600080fd5b8063d511e089116100bd578063d511e08914610726578063d7981a3314610739578063db57d0c71461074c57600080fd5b8063cbb40ff7146106e7578063d35369d91461071e57600080fd5b8063b49fa28d1161012f578063bcc3d51f11610114578063bcc3d51f146106ae578063bf98d051146106c1578063bfa4cc15146106d457600080fd5b8063b49fa28d1461066a578063b57221be1461069b57600080fd5b8063a638980c11610160578063a638980c1461057f578063aa4e5dfa14610592578063b03c7d6e146105f957600080fd5b80639e5d7e4214610559578063a55b34b41461056c57600080fd5b806361e6d67b1161022957806386036b04116101dd5780638f6c03c1116101c25780638f6c03c11461052057806398411f6c146105335780639a9eaed41461054657600080fd5b806386036b04146104dd5780638da5cb5b1461050857600080fd5b8063797f29f11161020e578063797f29f11461045b5780637c2184481461046e578063836c41b81461049f57600080fd5b806361e6d67b1461043557806362bedfd01461044857600080fd5b80633a43a74a116102805780633e2a499a116102655780633e2a499a146103f057806351c829651461040357806356baa2b71461040c57600080fd5b80633a43a74a146103c85780633c769275146103dd57600080fd5b8063022a2186146102b2578063084b713e146102d85780630e954d01146102fe5780632281b33b1461031e575b600080fd5b6102c56102c036600461380b565b6107d0565b6040519081526020015b60405180910390f35b600a54600b54604080516001600160a01b039384168152929091166020830152016102cf565b6102c561030c366004613856565b60086020526000908152604090205481565b61038f61032c366004613873565b60056020908152600092835260408084209091529082529020547bffffffffffffffffffffffffffffffffffffffffffffffffffffffff8116907c0100000000000000000000000000000000000000000000000000000000900463ffffffff1682565b604080517bffffffffffffffffffffffffffffffffffffffffffffffffffffffff909316835263ffffffff9091166020830152016102cf565b6103db6103d63660046138ac565b6108d8565b005b6103db6103eb366004613856565b610c04565b6103db6103fe3660046138d1565b610d21565b6102c560025481565b6102c561041a366004613856565b6001600160a01b031660009081526008602052604090205490565b6103db6104433660046138d1565b611044565b6103db610456366004613856565b6112cc565b6103db61046936600461380b565b6113bb565b6102c561047c3660046138ff565b600660209081526000938452604080852082529284528284209052825290205481565b6104cd6104ad366004613873565b600160209081526000928352604080842090915290825290205460ff1681565b60405190151581526020016102cf565b600b546104f0906001600160a01b031681565b6040516001600160a01b0390911681526020016102cf565b6009546104f09061010090046001600160a01b031681565b6103db61052e366004613856565b611497565b6103db61054136600461393f565b611586565b600a546104f0906001600160a01b031681565b6103db61056736600461380b565b6115ea565b6102c561057a36600461380b565b611743565b6103db61058d3660046138d1565b6117f1565b6105a56105a03660046138d1565b611a4c565b604080519915158a5260208a01989098526001600160a01b03909616968801969096526060870193909352608086019190915260a085015260c084015260e0830191909152610100820152610120016102cf565b61038f610607366004613873565b60046020908152600092835260408084209091529082529020547bffffffffffffffffffffffffffffffffffffffffffffffffffffffff8116907c0100000000000000000000000000000000000000000000000000000000900463ffffffff1682565b6102c56106783660046138ff565b600760209081526000938452604080852082529284528284209052825290205481565b6102c56106a93660046138d1565b611b67565b6103db6106bc366004613856565b611b85565b6102c56106cf366004613856565b611c74565b6104f06106e2366004613958565b611dc6565b600c5461070c9074010000000000000000000000000000000000000000900460ff1681565b60405160ff90911681526020016102cf565b6103db611dfe565b6103db61073436600461380b565b6120da565b6102c56107473660046138d1565b61212e565b6103db61075a36600461380b565b61214c565b600c546104f0906001600160a01b031681565b6103db61078036600461380b565b612197565b6103db610793366004613856565b6122e1565b6102c56107a6366004613873565b600360209081526000928352604080842090915290825290205481565b6009546104cd9060ff1681565b6000811561087e57600a546040517f0dd8fe6c0000000000000000000000000000000000000000000000000000000081526001600160a01b038581166004830152868116602483015290911690630dd8fe6c906044015b60206040518083038186803b15801561083f57600080fd5b505afa158015610853573d6000803e3d6000fd5b505050506040513d601f19601f820116820180604052508101906108779190613984565b90506108d1565b600b546040517f0dd8fe6c0000000000000000000000000000000000000000000000000000000081526001600160a01b038581166004830152868116602483015290911690630dd8fe6c90604401610827565b9392505050565b60095461010090046001600160a01b0316331461093c5760405162461bcd60e51b815260206004820152600960248201527f6e6f6e2d6f776e6572000000000000000000000000000000000000000000000060448201526064015b60405180910390fd5b8015156000908152602081905260409020548210610958575050565b80151560009081526001602090815260408083209183905282208054839190869081106109875761098761399d565b6000918252602080832091909101546001600160a01b03168352828101939093526040918201812080547fffffffffffffffffffffffffffffffffffffffffffffffffffffffffffffff00169415159490941790935583151583529082905281208054849081106109fa576109fa61399d565b6000918252602090912001546001600160a01b03169050825b821515600090815260208190526040902054610a31906001906139fb565b811015610af1578215156000908152602081905260409020610a54826001613a12565b81548110610a6457610a6461399d565b6000918252602080832090910154851515835290829052604090912080546001600160a01b039092169183908110610a9e57610a9e61399d565b600091825260209091200180547fffffffffffffffffffffffff0000000000000000000000000000000000000000166001600160a01b039290921691909117905580610ae981613a2a565b915050610a13565b508115156000908152602081905260409020805480610b1257610b12613a63565b6000828152602080822083017fffffffffffffffffffffffffffffffffffffffffffffffffffffffffffffffff90810180547fffffffffffffffffffffffff000000000000000000000000000000000000000016905590920190925583151582526003815260408083206001600160a01b0385168452909152812055610b96611dfe565b81158015600090815260208190526040808220549282529020546001600160a01b038316917f139636d17ea1ec27949b774fe60dce0d127166fd163c5af4e5f0f4b056427f8491610be79190612408565b6040805191825285151560208301520160405180910390a2505050565b6001600090815260209081527fada5013122d395ba3c54772283fb069b10426056ef8ca54750cb9bb552a59e7d80546040805182850281018501909152818152610c92938593919290830182828015610c8657602002820191906000526020600020905b81546001600160a01b03168152600190910190602001808311610c68575b5050505050600161244a565b600080805260209081527fad3228b676f7d3cd4284a5443f17f1962b36e491b30a40b2405849e597ba5fb580546040805182850281018501909152818152610d1e938593919290830182828015610d1257602002820191906000526020600020905b81546001600160a01b03168152600190910190602001808311610cf4575b5050505050600061244a565b50565b80151560008181526004602090815260408083206001600160a01b03871680855290835281842094845260038352818420908452909152812054825490914391610d929083907c0100000000000000000000000000000000000000000000000000000000900463ffffffff166124f0565b9050600081118015610da45750600083115b15610fa9576000610db58787611b67565b90506000610dc38386612532565b90506000808311610de35760405180602001604052806000815250610ded565b610ded8284612574565b604080516020810190915288547bffffffffffffffffffffffffffffffffffffffffffffffffffffffff168152909150600090610e2a90836125b9565b90506040518060400160405280610e7a83600001516040518060400160405280601a81526020017f6e657720696e64657820657863656564732032323420626974730000000000008152506125e5565b7bffffffffffffffffffffffffffffffffffffffffffffffffffffffff168152602001610edc886040518060400160405280601c81526020017f626c6f636b206e756d626572206578636565647320333220626974730000000081525061262d565b63ffffffff16815250600460008b15151515815260200190815260200160002060008c6001600160a01b03166001600160a01b0316815260200190815260200160002060008201518160000160006101000a8154817bffffffffffffffffffffffffffffffffffffffffffffffffffffffff02191690837bffffffffffffffffffffffffffffffffffffffffffffffffffffffff160217905550602082015181600001601c6101000a81548163ffffffff021916908363ffffffff1602179055509050505050505061103c565b801561103c57610fee826040518060400160405280601c81526020017f626c6f636b206e756d626572206578636565647320333220626974730000000081525061262d565b845463ffffffff919091167c0100000000000000000000000000000000000000000000000000000000027bffffffffffffffffffffffffffffffffffffffffffffffffffffffff9091161784555b505050505050565b80151560008181526005602090815260408083206001600160a01b038716808552908352818420948452600383528184209084529091528120548254909143916110b59083907c0100000000000000000000000000000000000000000000000000000000900463ffffffff166124f0565b90506000811180156110c75750600083115b15610fa95760006110d8878761212e565b905060006110e68386612532565b905060008083116111065760405180602001604052806000815250611110565b6111108284612574565b604080516020810190915288547bffffffffffffffffffffffffffffffffffffffffffffffffffffffff16815290915060009061114d90836125b9565b9050604051806040016040528061119d83600001516040518060400160405280601a81526020017f6e657720696e64657820657863656564732032323420626974730000000000008152506125e5565b7bffffffffffffffffffffffffffffffffffffffffffffffffffffffff1681526020016111ff886040518060400160405280601c81526020017f626c6f636b206e756d626572206578636565647320333220626974730000000081525061262d565b63ffffffff16815250600560008b15151515815260200190815260200160002060008c6001600160a01b03166001600160a01b0316815260200190815260200160002060008201518160000160006101000a8154817bffffffffffffffffffffffffffffffffffffffffffffffffffffffff02191690837bffffffffffffffffffffffffffffffffffffffffffffffffffffffff160217905550602082015181600001601c6101000a81548163ffffffff021916908363ffffffff1602179055509050505050505061103c565b60095461010090046001600160a01b0316331461132b5760405162461bcd60e51b815260206004820152600960248201527f6e6f6e2d6f776e657200000000000000000000000000000000000000000000006044820152606401610933565b6001600160a01b0381166113815760405162461bcd60e51b815260206004820152601060248201527f4164647265737320697320656d707479000000000000000000000000000000006044820152606401610933565b600c80547fffffffffffffffffffffffff0000000000000000000000000000000000000000166001600160a01b0392909216919091179055565b80151560009081526001602090815260408083206001600160a01b038616845290915290205460ff166114305760405162461bcd60e51b815260206004820152601560248201527f4d61726b657420646f6573206e6f7420657869737400000000000000000000006044820152606401610933565b6040805160018082528183019092526000916020808301908036833701905050905082816000815181106114665761146661399d565b60200260200101906001600160a01b031690816001600160a01b03168152505061149184828461244a565b50505050565b60095461010090046001600160a01b031633146114f65760405162461bcd60e51b815260206004820152600960248201527f6e6f6e2d6f776e657200000000000000000000000000000000000000000000006044820152606401610933565b6001600160a01b03811661154c5760405162461bcd60e51b815260206004820152601060248201527f4164647265737320697320656d707479000000000000000000000000000000006044820152606401610933565b600a80547fffffffffffffffffffffffff0000000000000000000000000000000000000000166001600160a01b0392909216919091179055565b60095461010090046001600160a01b031633146115e55760405162461bcd60e51b815260206004820152600960248201527f6e6f6e2d6f776e657200000000000000000000000000000000000000000000006044820152606401610933565b600255565b80151560008181526004602090815260408083206001600160a01b038089168086529184528285208351808601855281547bffffffffffffffffffffffffffffffffffffffffffffffffffffffff1681528451808701865297875260068652848720938752928552838620918916808752828652938620805488528351949096529352925582519092901561103c5760006116858383612655565b90506000611694888888611743565b905060006116a28284612681565b6001600160a01b0389166000908152600860205260409020549091506116c89082612408565b6001600160a01b03898116600081815260086020908152604091829020859055895182518781529182019590955290810193909352891515606084015291908b16907fe98b5934d0b4071502db90472d1b9edf6ee2503d04dc5d45abb866e73d4d49d6906080015b60405180910390a3505050505050505050565b6000811561179e57600a546040517f343caa1d0000000000000000000000000000000000000000000000000000000081526001600160a01b03858116600483015286811660248301529091169063343caa1d90604401610827565b600b546040517f343caa1d0000000000000000000000000000000000000000000000000000000081526001600160a01b03858116600483015286811660248301529091169063343caa1d90604401610827565b60095461010090046001600160a01b031633146118505760405162461bcd60e51b815260206004820152600960248201527f6e6f6e2d6f776e657200000000000000000000000000000000000000000000006044820152606401610933565b80151560009081526001602090815260408083206001600160a01b038616845290915290205460ff16156118c65760405162461bcd60e51b815260206004820152601560248201527f4d61726b657420616c72656164792065786973747300000000000000000000006044820152606401610933565b600c548115156000908152602081905260409020547401000000000000000000000000000000000000000090910460ff161161196a5760405162461bcd60e51b815260206004820152602b60248201527f457863656564696e6720746865206d6178206e756d626572206f66206d61726b60448201527f65747320616c6c6f7765640000000000000000000000000000000000000000006064820152608401610933565b8015801560008181526001602081815260408084206001600160a01b03891680865290835281852080547fffffffffffffffffffffffffffffffffffffffffffffffffffffffffffffff0016851790559484528382528084208054938401815580855291842090920180547fffffffffffffffffffffffff000000000000000000000000000000000000000016851790555493825290205490917f853501741cbb96ce9d9e735733b1c84178f3871c61e6841c44852e3b91ba546291611a309190612408565b6040805191825284151560208301520160405180910390a25050565b60008060008060008060008060008915611b0f57600a546040517f8e8f294b0000000000000000000000000000000000000000000000000000000081526001600160a01b038d8116600483015290911690638e8f294b906024015b6101206040518083038186803b158015611ac057600080fd5b505afa158015611ad4573d6000803e3d6000fd5b505050506040513d601f19601f82011682018060405250810190611af89190613ac1565b985098509850985098509850985098509850611b5a565b600b546040517f8e8f294b0000000000000000000000000000000000000000000000000000000081526001600160a01b038d8116600483015290911690638e8f294b90602401611aa7565b9295985092959850929598565b600080611b748484611a4c565b50939b9a5050505050505050505050565b60095461010090046001600160a01b03163314611be45760405162461bcd60e51b815260206004820152600960248201527f6e6f6e2d6f776e657200000000000000000000000000000000000000000000006044820152606401610933565b6001600160a01b038116611c3a5760405162461bcd60e51b815260206004820152601060248201527f4164647265737320697320656d707479000000000000000000000000000000006044820152606401610933565b600b80547fffffffffffffffffffffffff0000000000000000000000000000000000000000166001600160a01b0392909216919091179055565b6001600160a01b0381166000908152600860205260408120548180611c976126ab565b6001600090815260208190527fada5013122d395ba3c54772283fb069b10426056ef8ca54750cb9bb552a59e7d549294509092505b600160009081526020527fada5013122d395ba3c54772283fb069b10426056ef8ca54750cb9bb552a59e7d54811015611d3d57611d2985611d24611d1586888c878860016129e5565b611d2487898d88896001612fa8565b612408565b945080611d3581613a2a565b915050611ccc565b5060005b60008080526020527fad3228b676f7d3cd4284a5443f17f1962b36e491b30a40b2405849e597ba5fb554811015611dbb576000611d7e8284613a12565b9050611da586611d24611d9687898d878960006129e5565b611d24888a8e888a6000612fa8565b9550508080611db390613a2a565b915050611d41565b509295945050505050565b60006020528160005260406000208181548110611de257600080fd5b6000918252602090912001546001600160a01b03169150829050565b6000806000611e0b6126ab565b6001600090815260208190527fada5013122d395ba3c54772283fb069b10426056ef8ca54750cb9bb552a59e7d5492945090925090815b600160009081526020527fada5013122d395ba3c54772283fb069b10426056ef8ca54750cb9bb552a59e7d54811015611f9457600160009081526020527fada5013122d395ba3c54772283fb069b10426056ef8ca54750cb9bb552a59e7d805482908110611eb257611eb261399d565b60009182526020909120015484516001600160a01b039091169650611ed8576000611f06565b611f06600254611f01878481518110611ef357611ef361399d565b6020026020010151876134c3565b6134fd565b6001600160a01b03871660008181527fa15bc60c955c405d20d9149c709e2460f1c2d9a497496a7f46004d1772c3054c6020908152604091829020849055815184815260019181019190915292955090917fc0f1102f4f816e62a7257be6202209cfe6108245a3c9ec280aace2a6e0311ef1910160405180910390a280611f8c81613a2a565b915050611e42565b5060005b60008080526020527fad3228b676f7d3cd4284a5443f17f1962b36e491b30a40b2405849e597ba5fb55481101561103c5760008080526020527fad3228b676f7d3cd4284a5443f17f1962b36e491b30a40b2405849e597ba5fb58054829081106120045761200461399d565b60009182526020909120015484516001600160a01b03909116965061202a57600061204f565b60025461204f90611f018761203f8587613a12565b81518110611ef357611ef361399d565b6001600160a01b03871660008181527f3617319a054d772f909f7c479a2cebe5066e836a939412e32403c99029b92eff6020908152604080832085905580518581529182019290925292955090917fc0f1102f4f816e62a7257be6202209cfe6108245a3c9ec280aace2a6e0311ef1910160405180910390a2806120d281613a2a565b915050611f98565b80151560009081526001602090815260408083206001600160a01b038716845290915290205460ff1661210c57505050565b612114611dfe565b61211e8382610d21565b6121298383836115ea565b505050565b60008061213b8484611a4c565b50909b9a5050505050505050505050565b80151560009081526001602090815260408083206001600160a01b038716845290915290205460ff1661217e57505050565b612186611dfe565b6121908382611044565b6121298383835b80151560008181526005602090815260408083206001600160a01b038089168086529184528285208351808601855281547bffffffffffffffffffffffffffffffffffffffffffffffffffffffff1681528451808701865297875260078652848720938752928552838620918916808752828652938620805488528351949096529352925582519092901561103c5760006122328383612655565b905060006122418888886107d0565b9050600061224f8284612681565b6001600160a01b0389166000908152600860205260409020549091506122759082612408565b6001600160a01b03898116600081815260086020908152604091829020859055895182518781529182019590955290810193909352891515606084015291908b16907f304b2e8eeed8ba837ce7cff1d7963fb186494a03cea4d06d5d4a5c54864aec3390608001611730565b60095461010090046001600160a01b031633146123405760405162461bcd60e51b815260206004820152600960248201527f6e6f6e2d6f776e657200000000000000000000000000000000000000000000006044820152606401610933565b6009546001600160a01b038281166101009092041614156123c95760405162461bcd60e51b815260206004820152602260248201527f5472616e736665724f776e6572736869703a207468652073616d65206f776e6560448201527f722e0000000000000000000000000000000000000000000000000000000000006064820152608401610933565b600980546001600160a01b03909216610100027fffffffffffffffffffffff0000000000000000000000000000000000000000ff909216919091179055565b60006108d183836040518060400160405280601181526020017f6164646974696f6e206f766572666c6f77000000000000000000000000000000815250613516565b60005b825181101561149157600083828151811061246a5761246a61399d565b6020026020010151905061247e8184610d21565b6124898186856115ea565b6124938184611044565b61249e818685612197565b6001600160a01b0385166000908152600860205260409020546124c49086908386613550565b6001600160a01b03861660009081526008602052604090205550806124e881613a2a565b91505061244d565b60006108d183836040518060400160405280601581526020017f7375627472616374696f6e20756e646572666c6f7700000000000000000000008152506136fd565b60006108d183836040518060400160405280601781526020017f6d756c7469706c69636174696f6e206f766572666c6f7700000000000000000081525061372c565b60408051602081019091526000815260405180602001604052806125b06125aa866ec097ce7bc90715b34b9f1000000000612532565b8561377f565b90529392505050565b60408051602081019091526000815260405180602001604052806125b085600001518560000151612408565b6000817c010000000000000000000000000000000000000000000000000000000084106126255760405162461bcd60e51b81526004016109339190613b3f565b509192915050565b60008164010000000084106126255760405162461bcd60e51b81526004016109339190613b3f565b60408051602081019091526000815260405180602001604052806125b0856000015185600001516124f0565b60006ec097ce7bc90715b34b9f10000000006126a1848460000151612532565b6108d19190613bb2565b60606126c36040518060200160405280600081525090565b6040805160208082019092526000808252918290527fada5013122d395ba3c54772283fb069b10426056ef8ca54750cb9bb552a59e7d548280527fad3228b676f7d3cd4284a5443f17f1962b36e491b30a40b2405849e597ba5fb55491929161272c9190612408565b67ffffffffffffffff81111561274457612744613a92565b60405190808252806020026020018201604052801561278457816020015b6040805160208101909152600081528152602001906001900390816127625790505b506001600090815260208181527fada5013122d395ba3c54772283fb069b10426056ef8ca54750cb9bb552a59e7d546040805192830190528282529293509091908290819060005b600160009081526020527fada5013122d395ba3c54772283fb069b10426056ef8ca54750cb9bb552a59e7d548110156128d057600160009081526020527fada5013122d395ba3c54772283fb069b10426056ef8ca54750cb9bb552a59e7d80548290811061283c5761283c61399d565b6000918252602090912001546001600160a01b03169550612868612861876001611b67565b6000612532565b935061287861286187600161212e565b9250604051806020016040528061288f8686612408565b8152509150818782815181106128a7576128a761399d565b60200260200101819052506128bc88836125b9565b9750806128c881613a2a565b9150506127cc565b5060005b60008080526020527fad3228b676f7d3cd4284a5443f17f1962b36e491b30a40b2405849e597ba5fb5548110156129d55760008080526020527fad3228b676f7d3cd4284a5443f17f1962b36e491b30a40b2405849e597ba5fb58054829081106129405761294061399d565b60009182526020822001546001600160a01b0316965061296590612861908890611b67565b935061297561286187600061212e565b9250604051806020016040528061298c8686612408565b90529150818761299c8388613a12565b815181106129ac576129ac61399d565b60200260200101819052506129c188836125b9565b9750806129cd81613a2a565b9150506128d4565b5094989597509495505050505050565b60008060008860000151116129fb576000612a24565b612a24600254611f01898881518110612a1657612a1661399d565b60200260200101518b6134c3565b8315156000908152600460209081526040808320918390528220805493945091929091839188908110612a5957612a5961399d565b60009182526020808320909101546001600160a01b0316835282810193909352604091820181208251808401909352547bffffffffffffffffffffffffffffffffffffffffffffffffffffffff8116835263ffffffff7c01000000000000000000000000000000000000000000000000000000009091041692820183905290925090612ae69043906124f0565b118015612af35750600082115b15612cb757604080516020808201835283517bffffffffffffffffffffffffffffffffffffffffffffffffffffffff1682528615156000908152908190529182208054612bf492918491612b6d91908b908110612b5257612b5261399d565b6000918252602090912001546001600160a01b031689611b67565b11612b8757604051806020016040528060008152506125b9565b612bef612ba7612ba143876020015163ffffffff166124f0565b87612532565b88151560009081526020819052604090208054612bea91908c908110612bcf57612bcf61399d565b6000918252602090912001546001600160a01b03168a611b67565b612574565b6125b9565b90506040518060400160405280612c4483600001516040518060400160405280601a81526020017f6e657720696e64657820657863656564732032323420626974730000000000008152506125e5565b7bffffffffffffffffffffffffffffffffffffffffffffffffffffffff168152602001612ca6436040518060400160405280601c81526020017f626c6f636b206e756d626572206578636565647320333220626974730000000081525061262d565b63ffffffff16815250915050612d1e565b6000612ccd43836020015163ffffffff166124f0565b1115612d1e57612d12436040518060400160405280601c81526020017f626c6f636b206e756d626572206578636565647320333220626974730000000081525061262d565b63ffffffff1660208201525b604080516020808201835286151560009081526006825283812091819052928320805483929185918b908110612d5657612d5661399d565b60009182526020808320909101546001600160a01b0390811684528382019490945260409283018220938e168252929092529020549052511115612f97578315612f5d57600a548415156000908152602081905260408120805491926001600160a01b03169163343caa1d918b918a908110612dd457612dd461399d565b60009182526020909120015460405160e084901b7fffffffff000000000000000000000000000000000000000000000000000000001681526001600160a01b0392831660048201529116602482015260440160206040518083038186803b158015612e3e57600080fd5b505afa158015612e52573d6000803e3d6000fd5b505050506040513d601f19601f82011682018060405250810190612e769190613984565b604080516020808201835285517bffffffffffffffffffffffffffffffffffffffffffffffffffffffff16825282518082018452891515600090815260068352848120928190529384208054959650612f53958795612f4e9594849390928f908110612ee457612ee461399d565b9060005260206000200160009054906101000a90046001600160a01b03166001600160a01b03166001600160a01b0316815260200190815260200160002060008f6001600160a01b03166001600160a01b0316815260200190815260200160002054815250612655565b612681565b9350505050612f9e565b600b548415156000908152602081905260408120805491926001600160a01b03169163343caa1d918b918a908110612dd457612dd461399d565b6000925050505b9695505050505050565b6000806000886000015111612fbe576000612fd9565b612fd9600254611f01898881518110612a1657612a1661399d565b831515600090815260056020908152604080832091839052822080549394509192909183918890811061300e5761300e61399d565b60009182526020808320909101546001600160a01b0316835282810193909352604091820181208251808401909352547bffffffffffffffffffffffffffffffffffffffffffffffffffffffff8116835263ffffffff7c0100000000000000000000000000000000000000000000000000000000909104169282018390529092509061309b9043906124f0565b1180156130a85750600082115b1561325c57604080516020808201835283517bffffffffffffffffffffffffffffffffffffffffffffffffffffffff16825286151560009081529081905291822080546131999291849161312291908b9081106131075761310761399d565b6000918252602090912001546001600160a01b03168961212e565b1161313c57604051806020016040528060008152506125b9565b612bef613156612ba143876020015163ffffffff166124f0565b88151560009081526020819052604090208054612bea91908c90811061317e5761317e61399d565b6000918252602090912001546001600160a01b03168a61212e565b905060405180604001604052806131e983600001516040518060400160405280601a81526020017f6e657720696e64657820657863656564732032323420626974730000000000008152506125e5565b7bffffffffffffffffffffffffffffffffffffffffffffffffffffffff16815260200161324b436040518060400160405280601c81526020017f626c6f636b206e756d626572206578636565647320333220626974730000000081525061262d565b63ffffffff168152509150506132c3565b600061327243836020015163ffffffff166124f0565b11156132c3576132b7436040518060400160405280601c81526020017f626c6f636b206e756d626572206578636565647320333220626974730000000081525061262d565b63ffffffff1660208201525b604080516020808201835286151560009081526007825283812091819052928320805483929185918b9081106132fb576132fb61399d565b60009182526020808320909101546001600160a01b0390811684528382019490945260409283018220938e168252929092529020549052511115612f9757831561348957600a548415156000908152602081905260408120805491926001600160a01b031691630dd8fe6c918b918a9081106133795761337961399d565b60009182526020909120015460405160e084901b7fffffffff000000000000000000000000000000000000000000000000000000001681526001600160a01b0392831660048201529116602482015260440160206040518083038186803b1580156133e357600080fd5b505afa1580156133f7573d6000803e3d6000fd5b505050506040513d601f19601f8201168201806040525081019061341b9190613984565b604080516020808201835285517bffffffffffffffffffffffffffffffffffffffffffffffffffffffff16825282518082018452891515600090815260078352848120928190529384208054959650612f53958795612f4e9594849390928f908110612ee457612ee461399d565b600b548415156000908152602081905260408120805491926001600160a01b031691630dd8fe6c918b918a9081106133795761337961399d565b60408051602081019091526000815260405180602001604052806125b06134f68660000151670de0b6b3a7640000612532565b855161377f565b6000670de0b6b3a76400006126a1848460000151612532565b6000806135238486613a12565b905082858210156135475760405162461bcd60e51b81526004016109339190613b3f565b50949350505050565b600083156136f257600c546040517f70a082310000000000000000000000000000000000000000000000000000000081523060048201526001600160a01b039091169060009082906370a082319060240160206040518083038186803b1580156135b957600080fd5b505afa1580156135cd573d6000803e3d6000fd5b505050506040513d601f19601f820116820180604052508101906135f19190613984565b90508086116136ef576040517fa9059cbb0000000000000000000000000000000000000000000000000000000081526001600160a01b0388811660048301526024820188905283169063a9059cbb90604401602060405180830381600087803b15801561365d57600080fd5b505af1158015613671573d6000803e3d6000fd5b505050506040513d601f19601f820116820180604052508101906136959190613bed565b50604080518781526001600160a01b038781166020830152861515828401529151918916917f719d6e848fb50293d9c4d506d6e2378a6a8dbe7a4b5eb9a313470eb5367f3d999181900360600190a26000925050506136f5565b50505b50825b949350505050565b600081848411156137215760405162461bcd60e51b81526004016109339190613b3f565b506136f583856139fb565b6000831580613739575082155b15613746575060006108d1565b60006137528486613c0a565b90508361375f8683613bb2565b1483906135475760405162461bcd60e51b81526004016109339190613b3f565b60006108d183836040518060400160405280600e81526020017f646976696465206279207a65726f000000000000000000000000000000000000815250600081836137dd5760405162461bcd60e51b81526004016109339190613b3f565b506136f58385613bb2565b6001600160a01b0381168114610d1e57600080fd5b8015158114610d1e57600080fd5b60008060006060848603121561382057600080fd5b833561382b816137e8565b9250602084013561383b816137e8565b9150604084013561384b816137fd565b809150509250925092565b60006020828403121561386857600080fd5b81356108d1816137e8565b6000806040838503121561388657600080fd5b8235613891816137fd565b915060208301356138a1816137e8565b809150509250929050565b600080604083850312156138bf57600080fd5b8235915060208301356138a1816137fd565b600080604083850312156138e457600080fd5b82356138ef816137e8565b915060208301356138a1816137fd565b60008060006060848603121561391457600080fd5b833561391f816137fd565b9250602084013561392f816137e8565b9150604084013561384b816137e8565b60006020828403121561395157600080fd5b5035919050565b6000806040838503121561396b57600080fd5b8235613976816137fd565b946020939093013593505050565b60006020828403121561399657600080fd5b5051919050565b7f4e487b7100000000000000000000000000000000000000000000000000000000600052603260045260246000fd5b7f4e487b7100000000000000000000000000000000000000000000000000000000600052601160045260246000fd5b600082821015613a0d57613a0d6139cc565b500390565b60008219821115613a2557613a256139cc565b500190565b60007fffffffffffffffffffffffffffffffffffffffffffffffffffffffffffffffff821415613a5c57613a5c6139cc565b5060010190565b7f4e487b7100000000000000000000000000000000000000000000000000000000600052603160045260246000fd5b7f4e487b7100000000000000000000000000000000000000000000000000000000600052604160045260246000fd5b60008060008060008060008060006101208a8c031215613ae057600080fd5b8951613aeb816137fd565b60208b015160408c0151919a509850613b03816137e8565b8097505060608a0151955060808a0151945060a08a0151935060c08a0151925060e08a015191506101008a015190509295985092959850929598565b600060208083528351808285015260005b81811015613b6c57858101830151858201604001528201613b50565b81811115613b7e576000604083870101525b50601f017fffffffffffffffffffffffffffffffffffffffffffffffffffffffffffffffe016929092016040019392505050565b600082613be8577f4e487b7100000000000000000000000000000000000000000000000000000000600052601260045260246000fd5b500490565b600060208284031215613bff57600080fd5b81516108d1816137fd565b6000817fffffffffffffffffffffffffffffffffffffffffffffffffffffffffffffffff0483118215151615613c4257613c426139cc565b50029056fea264697066735822122034b794e13f833a2146586629385bd446b4ca6808691d6294701c74eb4212cbcc64736f6c63430008090033",
    "linkReferences": {},
    "deployedLinkReferences": {}
}