{
  "_format": "hh-sol-artifact-1",
  "contractName": "DeltaVerified",
  "sourceName": "contracts/DeltaVerified.sol",
  "abi": [
    {
      "inputs": [
        {
          "internalType": "address",
          "name": "oracle_",
          "type": "address"
        },
        {
          "internalType": "uint256",
          "name": "newCloseFactorMantissa_",
          "type": "uint256"
        }
      ],
      "stateMutability": "nonpayable",
      "type": "constructor"
    },
    {
      "anonymous": false,
      "inputs": [
        {
          "indexed": false,
          "internalType": "address",
          "name": "targetAccount",
          "type": "address"
        },
        {
          "indexed": false,
          "internalType": "address",
          "name": "assetBorrow",
          "type": "address"
        },
        {
          "indexed": false,
          "internalType": "uint256",
          "name": "borrowBalanceAccumulated",
          "type": "uint256"
        },
        {
          "indexed": false,
          "internalType": "uint256",
          "name": "amountRepaid",
          "type": "uint256"
        },
        {
          "indexed": false,
          "internalType": "address",
          "name": "liquidator",
          "type": "address"
        },
        {
          "indexed": false,
          "internalType": "address",
          "name": "assetCollateral",
          "type": "address"
        },
        {
          "indexed": false,
          "internalType": "uint256",
          "name": "amountSeized",
          "type": "uint256"
        }
      ],
      "name": "BorrowLiquidated",
      "type": "event"
    },
    {
      "anonymous": false,
      "inputs": [
        {
          "indexed": false,
          "internalType": "address",
          "name": "account",
          "type": "address"
        },
        {
          "indexed": false,
          "internalType": "address",
          "name": "asset",
          "type": "address"
        },
        {
          "indexed": false,
          "internalType": "uint256",
          "name": "amount",
          "type": "uint256"
        },
        {
          "indexed": false,
          "internalType": "uint256",
          "name": "startingBalance",
          "type": "uint256"
        },
        {
          "indexed": false,
          "internalType": "uint256",
          "name": "newBalance",
          "type": "uint256"
        }
      ],
      "name": "BorrowRepaid",
      "type": "event"
    },
    {
      "anonymous": false,
      "inputs": [
        {
          "indexed": false,
          "internalType": "address",
          "name": "account",
          "type": "address"
        },
        {
          "indexed": false,
          "internalType": "address",
          "name": "asset",
          "type": "address"
        },
        {
          "indexed": false,
          "internalType": "uint256",
          "name": "amount",
          "type": "uint256"
        },
        {
          "indexed": false,
          "internalType": "uint256",
          "name": "startingBalance",
          "type": "uint256"
        },
        {
          "indexed": false,
          "internalType": "uint256",
          "name": "borrowAmountWithFee",
          "type": "uint256"
        },
        {
          "indexed": false,
          "internalType": "uint256",
          "name": "newBalance",
          "type": "uint256"
        }
      ],
      "name": "BorrowTaken",
      "type": "event"
    },
    {
      "anonymous": false,
      "inputs": [
        {
          "indexed": false,
          "internalType": "address",
          "name": "asset",
          "type": "address"
        },
        {
          "indexed": false,
          "internalType": "uint256",
          "name": "equityAvailableBefore",
          "type": "uint256"
        },
        {
          "indexed": false,
          "internalType": "uint256",
          "name": "amount",
          "type": "uint256"
        },
        {
          "indexed": false,
          "internalType": "address",
          "name": "owner",
          "type": "address"
        }
      ],
      "name": "EquityWithdrawn",
      "type": "event"
    },
    {
      "anonymous": false,
      "inputs": [
        {
          "indexed": false,
          "internalType": "address",
          "name": "account",
          "type": "address"
        },
        {
          "indexed": false,
          "internalType": "address",
          "name": "asset",
          "type": "address"
        },
        {
          "indexed": false,
          "internalType": "uint256",
          "name": "amount",
          "type": "uint256"
        },
        {
          "indexed": false,
          "internalType": "uint256",
          "name": "startingBalance",
          "type": "uint256"
        },
        {
          "indexed": false,
          "internalType": "uint256",
          "name": "newBalance",
          "type": "uint256"
        }
      ],
      "name": "SupplyOrgFeeAsAdmin",
      "type": "event"
    },
    {
      "anonymous": false,
      "inputs": [
        {
          "indexed": false,
          "internalType": "address",
          "name": "account",
          "type": "address"
        },
        {
          "indexed": false,
          "internalType": "address",
          "name": "asset",
          "type": "address"
        },
        {
          "indexed": false,
          "internalType": "uint256",
          "name": "amount",
          "type": "uint256"
        },
        {
          "indexed": false,
          "internalType": "uint256",
          "name": "startingBalance",
          "type": "uint256"
        },
        {
          "indexed": false,
          "internalType": "uint256",
          "name": "newBalance",
          "type": "uint256"
        }
      ],
      "name": "SupplyReceived",
      "type": "event"
    },
    {
      "anonymous": false,
      "inputs": [
        {
          "indexed": false,
          "internalType": "address",
          "name": "account",
          "type": "address"
        },
        {
          "indexed": false,
          "internalType": "address",
          "name": "asset",
          "type": "address"
        },
        {
          "indexed": false,
          "internalType": "uint256",
          "name": "amount",
          "type": "uint256"
        },
        {
          "indexed": false,
          "internalType": "uint256",
          "name": "startingBalance",
          "type": "uint256"
        },
        {
          "indexed": false,
          "internalType": "uint256",
          "name": "newBalance",
          "type": "uint256"
        }
      ],
      "name": "SupplyWithdrawn",
      "type": "event"
    },
    {
      "inputs": [],
      "name": "_guardCounter",
      "outputs": [
        {
          "internalType": "uint256",
          "name": "",
          "type": "uint256"
        }
      ],
      "stateMutability": "view",
      "type": "function"
    },
    {
      "inputs": [
        {
          "internalType": "address",
          "name": "asset",
          "type": "address"
        },
        {
          "internalType": "address",
          "name": "interestRateModel",
          "type": "address"
        }
      ],
      "name": "_setMarketIRateModel",
      "outputs": [
        {
          "internalType": "bool",
          "name": "",
          "type": "bool"
        }
      ],
      "stateMutability": "nonpayable",
      "type": "function"
    },
    {
      "inputs": [
        {
          "internalType": "uint256",
          "name": "collateralRatioMantissa",
          "type": "uint256"
        },
        {
          "internalType": "uint256",
          "name": "liquidationDiscountMantissa",
          "type": "uint256"
        }
      ],
      "name": "_setRiskParameters",
      "outputs": [
        {
          "internalType": "bool",
          "name": "",
          "type": "bool"
        }
      ],
      "stateMutability": "nonpayable",
      "type": "function"
    },
    {
      "inputs": [
        {
          "internalType": "address",
          "name": "asset",
          "type": "address"
        },
        {
          "internalType": "address",
          "name": "interestRateModel",
          "type": "address"
        }
      ],
      "name": "_supportMarket",
      "outputs": [
        {
          "internalType": "bool",
          "name": "",
          "type": "bool"
        }
      ],
      "stateMutability": "nonpayable",
      "type": "function"
    },
    {
      "inputs": [
        {
          "internalType": "address",
          "name": "asset",
          "type": "address"
        }
      ],
      "name": "_suspendMarket",
      "outputs": [
        {
          "internalType": "bool",
          "name": "",
          "type": "bool"
        }
      ],
      "stateMutability": "nonpayable",
      "type": "function"
    },
    {
      "inputs": [
        {
          "internalType": "address",
          "name": "asset",
          "type": "address"
        },
        {
          "internalType": "uint256",
          "name": "amount",
          "type": "uint256"
        }
      ],
      "name": "_withdrawEquity",
      "outputs": [
        {
          "internalType": "bool",
          "name": "",
          "type": "bool"
        }
      ],
      "stateMutability": "nonpayable",
      "type": "function"
    },
    {
      "inputs": [],
      "name": "admin",
      "outputs": [
        {
          "internalType": "address",
          "name": "",
          "type": "address"
        }
      ],
      "stateMutability": "view",
      "type": "function"
    },
    {
      "inputs": [
        {
          "internalType": "address",
          "name": "asset",
          "type": "address"
        }
      ],
      "name": "assetPrices",
      "outputs": [
        {
          "internalType": "uint256",
          "name": "",
          "type": "uint256"
        }
      ],
      "stateMutability": "view",
      "type": "function"
    },
    {
      "inputs": [
        {
          "internalType": "address",
          "name": "asset",
          "type": "address"
        },
        {
          "internalType": "uint256",
          "name": "amount",
          "type": "uint256"
        }
      ],
      "name": "borrow",
      "outputs": [
        {
          "internalType": "bool",
          "name": "",
          "type": "bool"
        }
      ],
      "stateMutability": "nonpayable",
      "type": "function"
    },
    {
      "inputs": [
        {
          "internalType": "address",
          "name": "",
          "type": "address"
        },
        {
          "internalType": "address",
          "name": "",
          "type": "address"
        }
      ],
      "name": "borrowBalances",
      "outputs": [
        {
          "internalType": "uint256",
          "name": "principal",
          "type": "uint256"
        },
        {
          "internalType": "uint256",
          "name": "interestIndex",
          "type": "uint256"
        }
      ],
      "stateMutability": "view",
      "type": "function"
    },
    {
      "inputs": [
        {
          "internalType": "address",
          "name": "userAddress",
          "type": "address"
        }
      ],
      "name": "calculateAccountValues",
      "outputs": [
        {
          "internalType": "uint256",
          "name": "",
          "type": "uint256"
        },
        {
          "internalType": "uint256",
          "name": "",
          "type": "uint256"
        }
      ],
      "stateMutability": "view",
      "type": "function"
    },
    {
      "inputs": [
        {
          "internalType": "uint256",
          "name": "startingBalance",
          "type": "uint256"
        },
        {
          "internalType": "uint256",
          "name": "interestIndexStart",
          "type": "uint256"
        },
        {
          "internalType": "uint256",
          "name": "interestIndexEnd",
          "type": "uint256"
        }
      ],
      "name": "calculateBalance",
      "outputs": [
        {
          "internalType": "uint256",
          "name": "",
          "type": "uint256"
        }
      ],
      "stateMutability": "pure",
      "type": "function"
    },
    {
      "inputs": [],
      "name": "closeFactorMantissa",
      "outputs": [
        {
          "internalType": "uint256",
          "name": "",
          "type": "uint256"
        }
      ],
      "stateMutability": "view",
      "type": "function"
    },
    {
      "inputs": [
        {
          "internalType": "uint256",
          "name": "",
          "type": "uint256"
        }
      ],
      "name": "collateralMarkets",
      "outputs": [
        {
          "internalType": "address",
          "name": "",
          "type": "address"
        }
      ],
      "stateMutability": "view",
      "type": "function"
    },
    {
      "inputs": [],
      "name": "collateralRatio",
      "outputs": [
        {
          "internalType": "uint256",
          "name": "mantissa",
          "type": "uint256"
        }
      ],
      "stateMutability": "view",
      "type": "function"
    },
    {
      "inputs": [
        {
          "internalType": "address",
          "name": "asset",
          "type": "address"
        }
      ],
      "name": "fetchAssetPrice",
      "outputs": [
        {
          "components": [
            {
              "internalType": "uint256",
              "name": "mantissa",
              "type": "uint256"
            }
          ],
          "internalType": "struct Exponential.Exp",
          "name": "",
          "type": "tuple"
        }
      ],
      "stateMutability": "view",
      "type": "function"
    },
    {
      "inputs": [
        {
          "internalType": "address",
          "name": "account",
          "type": "address"
        }
      ],
      "name": "getAccountLiquidity",
      "outputs": [
        {
          "internalType": "int256",
          "name": "",
          "type": "int256"
        }
      ],
      "stateMutability": "view",
      "type": "function"
    },
    {
      "inputs": [
        {
          "internalType": "address",
          "name": "account",
          "type": "address"
        },
        {
          "internalType": "address",
          "name": "asset",
          "type": "address"
        }
      ],
      "name": "getBorrowBalance",
      "outputs": [
        {
          "internalType": "uint256",
          "name": "",
          "type": "uint256"
        }
      ],
      "stateMutability": "view",
      "type": "function"
    },
    {
      "inputs": [
        {
          "internalType": "address",
          "name": "account",
          "type": "address"
        },
        {
          "internalType": "address",
          "name": "asset",
          "type": "address"
        }
      ],
      "name": "getBorrowBalanceWithInterest",
      "outputs": [
        {
          "internalType": "uint256",
          "name": "",
          "type": "uint256"
        }
      ],
      "stateMutability": "view",
      "type": "function"
    },
    {
      "inputs": [],
      "name": "getCollateralMarketsLength",
      "outputs": [
        {
          "internalType": "uint256",
          "name": "",
          "type": "uint256"
        }
      ],
      "stateMutability": "view",
      "type": "function"
    },
    {
      "inputs": [
        {
          "internalType": "address",
          "name": "asset",
          "type": "address"
        }
      ],
      "name": "getMarketBalances",
      "outputs": [
        {
          "internalType": "uint256",
          "name": "",
          "type": "uint256"
        },
        {
          "internalType": "uint256",
          "name": "",
          "type": "uint256"
        }
      ],
      "stateMutability": "view",
      "type": "function"
    },
    {
      "inputs": [
        {
          "internalType": "address",
          "name": "account",
          "type": "address"
        },
        {
          "internalType": "address",
          "name": "asset",
          "type": "address"
        }
      ],
      "name": "getSupplyBalance",
      "outputs": [
        {
          "internalType": "uint256",
          "name": "",
          "type": "uint256"
        }
      ],
      "stateMutability": "view",
      "type": "function"
    },
    {
      "inputs": [
        {
          "internalType": "address",
          "name": "account",
          "type": "address"
        },
        {
          "internalType": "address",
          "name": "asset",
          "type": "address"
        }
      ],
      "name": "getSupplyBalanceWithInterest",
      "outputs": [
        {
          "internalType": "uint256",
          "name": "",
          "type": "uint256"
        }
      ],
      "stateMutability": "view",
      "type": "function"
    },
    {
      "inputs": [
        {
          "internalType": "address",
          "name": "targetAccount",
          "type": "address"
        },
        {
          "internalType": "address",
          "name": "assetBorrow",
          "type": "address"
        },
        {
          "internalType": "address",
          "name": "assetCollateral",
          "type": "address"
        },
        {
          "internalType": "uint256",
          "name": "requestedAmountClose",
          "type": "uint256"
        }
      ],
      "name": "liquidateBorrow",
      "outputs": [
        {
          "internalType": "bool",
          "name": "",
          "type": "bool"
        }
      ],
      "stateMutability": "nonpayable",
      "type": "function"
    },
    {
      "inputs": [],
      "name": "liquidationDiscount",
      "outputs": [
        {
          "internalType": "uint256",
          "name": "mantissa",
          "type": "uint256"
        }
      ],
      "stateMutability": "view",
      "type": "function"
    },
    {
      "inputs": [
        {
          "internalType": "address",
          "name": "",
          "type": "address"
        }
      ],
      "name": "markets",
      "outputs": [
        {
          "internalType": "bool",
          "name": "isSupported",
          "type": "bool"
        },
        {
          "internalType": "uint256",
          "name": "blockNumber",
          "type": "uint256"
        },
        {
          "internalType": "address",
          "name": "interestRateModel",
          "type": "address"
        },
        {
          "internalType": "uint256",
          "name": "totalSupply",
          "type": "uint256"
        },
        {
          "internalType": "uint256",
          "name": "supplyRateMantissa",
          "type": "uint256"
        },
        {
          "internalType": "uint256",
          "name": "supplyIndex",
          "type": "uint256"
        },
        {
          "internalType": "uint256",
          "name": "totalBorrows",
          "type": "uint256"
        },
        {
          "internalType": "uint256",
          "name": "borrowRateMantissa",
          "type": "uint256"
        },
        {
          "internalType": "uint256",
          "name": "borrowIndex",
          "type": "uint256"
        }
      ],
      "stateMutability": "view",
      "type": "function"
    },
    {
      "inputs": [],
      "name": "maxLiquidationDiscountMantissa",
      "outputs": [
        {
          "internalType": "uint256",
          "name": "",
          "type": "uint256"
        }
      ],
      "stateMutability": "view",
      "type": "function"
    },
    {
      "inputs": [],
      "name": "minCollateralRatioMantissa",
      "outputs": [
        {
          "internalType": "uint256",
          "name": "",
          "type": "uint256"
        }
      ],
      "stateMutability": "view",
      "type": "function"
    },
    {
      "inputs": [],
      "name": "originationFee",
      "outputs": [
        {
          "internalType": "uint256",
          "name": "mantissa",
          "type": "uint256"
        }
      ],
      "stateMutability": "view",
      "type": "function"
    },
    {
      "inputs": [
        {
          "internalType": "address",
          "name": "",
          "type": "address"
        },
        {
          "internalType": "address",
          "name": "",
          "type": "address"
        }
      ],
      "name": "originationFeeBalance",
      "outputs": [
        {
          "internalType": "uint256",
          "name": "",
          "type": "uint256"
        }
      ],
      "stateMutability": "view",
      "type": "function"
    },
    {
      "inputs": [],
      "name": "paused",
      "outputs": [
        {
          "internalType": "bool",
          "name": "",
          "type": "bool"
        }
      ],
      "stateMutability": "view",
      "type": "function"
    },
    {
      "inputs": [],
      "name": "priceOracle",
      "outputs": [
        {
          "internalType": "contract ChainLink",
          "name": "",
          "type": "address"
        }
      ],
      "stateMutability": "view",
      "type": "function"
    },
    {
      "inputs": [
        {
          "internalType": "address",
          "name": "asset",
          "type": "address"
        },
        {
          "internalType": "uint256",
          "name": "amount",
          "type": "uint256"
        }
      ],
      "name": "repayBorrow",
      "outputs": [
        {
          "internalType": "bool",
          "name": "",
          "type": "bool"
        }
      ],
      "stateMutability": "nonpayable",
      "type": "function"
    },
    {
      "inputs": [],
      "name": "rewardControl",
      "outputs": [
        {
          "internalType": "contract IRewardControl",
          "name": "",
          "type": "address"
        }
      ],
      "stateMutability": "view",
      "type": "function"
    },
    {
      "inputs": [
        {
          "internalType": "address",
          "name": "rewardControl_",
          "type": "address"
        }
      ],
      "name": "setRewardControlAddress",
      "outputs": [
        {
          "internalType": "bool",
          "name": "",
          "type": "bool"
        }
      ],
      "stateMutability": "nonpayable",
      "type": "function"
    },
    {
      "inputs": [
        {
          "internalType": "address",
          "name": "asset",
          "type": "address"
        },
        {
          "internalType": "uint256",
          "name": "amount",
          "type": "uint256"
        }
      ],
      "name": "supply",
      "outputs": [
        {
          "internalType": "bool",
          "name": "",
          "type": "bool"
        }
      ],
      "stateMutability": "nonpayable",
      "type": "function"
    },
    {
      "inputs": [
        {
          "internalType": "address",
          "name": "",
          "type": "address"
        },
        {
          "internalType": "address",
          "name": "",
          "type": "address"
        }
      ],
      "name": "supplyBalances",
      "outputs": [
        {
          "internalType": "uint256",
          "name": "principal",
          "type": "uint256"
        },
        {
          "internalType": "uint256",
          "name": "interestIndex",
          "type": "uint256"
        }
      ],
      "stateMutability": "view",
      "type": "function"
    },
    {
      "inputs": [
        {
          "internalType": "address",
          "name": "asset",
          "type": "address"
        },
        {
          "internalType": "uint256",
          "name": "requestedAmount",
          "type": "uint256"
        }
      ],
      "name": "withdraw",
      "outputs": [
        {
          "internalType": "bool",
          "name": "",
          "type": "bool"
        }
      ],
      "stateMutability": "nonpayable",
      "type": "function"
    }
  ],
  "bytecode": "0x60806040526000196000553480156200001757600080fd5b5060405162004a8838038062004a888339810160408190526200003a91620001be565b6001600160a01b038216620000965760405162461bcd60e51b815260206004820152601c60248201527f4f7261636c652063616e2774206265205a45524f20616464726573730000000060448201526064015b60405180910390fd5b670de0b6b3a76400008110620001085760405162461bcd60e51b815260206004820152603060248201527f496e76616c6964204f726967696e6174696f6e20466565206f7220436c6f736560448201526f20466163746f72204d616e746973736160801b60648201526084016200008d565b60078054336001600160a01b031991821617909155670de0b6b3a7640000600190815566038d7ea4c680006002819055671158e460913d0000600381905567016345785d8a00006004819055670f43fc2c04ee00006005556006819055604080516020808201835290849052600e9390935580518084018252849052600f939093558251918201909252819052601055601555600980549091166001600160a01b039390931692909217909155601455620001fa565b60008060408385031215620001d257600080fd5b82516001600160a01b0381168114620001ea57600080fd5b6020939093015192949293505050565b61487e806200020a6000396000f3fe608060405234801561001057600080fd5b50600436106102925760003560e01c8063b4eae1cb11610160578063dbe2bc84116100d8578063f2b9fdb81161008c578063f5c61ce611610071578063f5c61ce614610666578063f851a44014610679578063fc7d42d71461068c57600080fd5b8063f2b9fdb814610640578063f3fef3a31461065357600080fd5b8063e61604cf116100bd578063e61604cf14610611578063e69e464014610624578063e87554461461063757600080fd5b8063dbe2bc84146105dc578063ddec280e146105ef57600080fd5b8063be2eafa11161012f578063bf5bfdfb11610114578063bf5bfdfb146105ad578063c1abfaa3146105b6578063c365a646146105c957600080fd5b8063be2eafa114610591578063beb546151461059a57600080fd5b8063b4eae1cb14610512578063b7adddac1461051c578063b8bb5c421461054e578063ba3777311461055857600080fd5b80635e9a523c1161020e5780638053fcbe116101c25780638e8f294b116101a75780638e8f294b146104315780639f180cf1146104ec578063abdb5ea8146104ff57600080fd5b80638053fcbe146104145780638a0022c61461041e57600080fd5b80636e2ede03116101f35780636e2ede03146103b957806379b29648146103c15780637bc33210146103e957600080fd5b80635e9a523c146103935780635ec88c79146103a657600080fd5b80632c52c7fd116102655780634706c3751161024a5780634706c375146103605780634b8a3529146103735780635c975abb1461038657600080fd5b80632c52c7fd14610344578063343caa1d1461034d57600080fd5b80630dd8fe6c14610297578063118e31b7146102bd57806321237f9c146102f65780632630c12f14610319575b600080fd5b6102aa6102a5366004614421565b6106be565b6040519081526020015b60405180910390f35b6102aa6102cb366004614421565b6001600160a01b039182166000908152600b6020908152604080832093909416825291909152205490565b610309610304366004614454565b610735565b60405190151581526020016102b4565b60095461032c906001600160a01b031681565b6040516001600160a01b0390911681526020016102b4565b6102aa60065481565b6102aa61035b366004614421565b610851565b61030961036e36600461446f565b6108a6565b61030961038136600461446f565b610c71565b6011546103099060ff1681565b6102aa6103a1366004614454565b6111c0565b6102aa6103b4366004614454565b6111d4565b600d546102aa565b6103d46103cf366004614454565b61121a565b604080519283526020830191909152016102b4565b6102aa6103f7366004614421565b601260209081526000928352604080842090915290825290205481565b6010546102aa9081565b61030961042c366004614421565b6112b7565b61049861043f366004614454565b600c6020526000908152604090208054600182015460028301546003840154600485015460058601546006870154600788015460089098015460ff9097169795966001600160a01b039095169593949293919290919089565b604080519915158a5260208a01989098526001600160a01b03909616968801969096526060870193909352608086019190915260a085015260c084015260e0830191909152610100820152610120016102b4565b6103d46104fa366004614454565b6113dd565b61030961050d36600461446f565b6113fc565b600e546102aa9081565b6103d461052a366004614421565b600a6020908152600092835260408084209091529082529020805460019091015482565b600f546102aa9081565b6102aa610566366004614421565b6001600160a01b039182166000908152600a6020908152604080832093909416825291909152205490565b6102aa60055481565b61032c6105a8366004614499565b611853565b6102aa60155481565b6103096105c4366004614421565b61187d565b6103096105d73660046144b2565b611aac565b6103096105ea366004614454565b611d34565b6106026105fd366004614454565b611dfc565b604051905181526020016102b4565b61030961061f3660046144d4565b611f3f565b6102aa61063236600461451f565b612645565b6102aa60145481565b61030961064e36600461446f565b612677565b61030961066136600461446f565b612aed565b60135461032c906001600160a01b031681565b60075461032c906001600160a01b031681565b6103d461069a366004614421565b600b6020908152600092835260408084209091529082529020805460019091015482565b6001600160a01b038082166000818152600c602090815260408083209487168352600b825280832093835292905290812060088301546007840154600185015493948594859491939192610713929143612fdb565b93506107288160000154826001015486612645565b9450505050505b92915050565b6007546000906001600160a01b031633146107975760405162461bcd60e51b815260206004820152600e60248201527f45787065637465642061646d696e00000000000000000000000000000000000060448201526064015b60405180910390fd5b6001600160a01b0382166108135760405162461bcd60e51b815260206004820152602560248201527f526577617264436f6e74726f6c20616464726573732063616e6e6f742062652060448201527f656d707479000000000000000000000000000000000000000000000000000000606482015260840161078e565b50601380547fffffffffffffffffffffffff0000000000000000000000000000000000000000166001600160a01b0392909216919091179055600190565b6001600160a01b038082166000818152600c602090815260408083209487168352600a825280832093835292905290812060058301546004840154600185015493948594859491939192610713929143612fdb565b6007546000906001600160a01b031633146109295760405162461bcd60e51b815260206004820152602360248201527f4551554954595f5749544844524157414c5f4d4f44454c5f4f574e45525f434860448201527f45434b0000000000000000000000000000000000000000000000000000000000606482015260840161078e565b6001600160a01b03831661097f5760405162461bcd60e51b815260206004820152601b60248201527f41737365742063616e2774206265207a65726f20616464726573730000000000604482015260640161078e565b60008061098b8561121a565b915091506000828261099c8861304e565b6109a6919061457a565b6109b09190614592565b9050808510610a015760405162461bcd60e51b815260206004820152601b60248201527f4551554954595f494e53554646494349454e545f42414c414e43450000000000604482015260640161078e565b600754610a199087906001600160a01b0316876130e3565b6001600160a01b038087166000908152600c60205260409020600201541663517cf73e8787610a478261304e565b610a519190614592565b6001600160a01b038a81166000908152600c60205260409081902060030154905160e086901b7fffffffff000000000000000000000000000000000000000000000000000000001681529390911660048401526024830191909152604482015260640160206040518083038186803b158015610acc57600080fd5b505afa158015610ae0573d6000803e3d6000fd5b505050506040513d601f19601f82011682018060405250810190610b0491906145a9565b6001600160a01b038088166000908152600c6020526040902060048101929092556002909101541663ed2b5a3c8787610b3c8261304e565b610b469190614592565b6001600160a01b038a81166000908152600c60205260409081902060060154905160e086901b7fffffffff000000000000000000000000000000000000000000000000000000001681529390911660048401526024830191909152604482015260640160206040518083038186803b158015610bc157600080fd5b505afa158015610bd5573d6000803e3d6000fd5b505050506040513d601f19601f82011682018060405250810190610bf991906145a9565b6001600160a01b038781166000818152600c6020908152604091829020600790810195909555935481519283529382018590528101889052911660608201527fcb9f0cda23d6b563fc8e14d8fdada71d2ab7dadccc2e26dc353bf20ea8c5b8529060800160405180910390a150600195945050505050565b6000600160156000828254610c86919061457a565b909155505060155460115460ff1615610ce15760405162461bcd60e51b815260206004820152600f60248201527f436f6e7472616374207061757365640000000000000000000000000000000000604482015260640161078e565b610ceb84336131e4565b610cf361416b565b6001600160a01b0385166000818152600c60209081526040808320338452600b8352818420948452939091529020815460ff16610d725760405162461bcd60e51b815260206004820152601460248201527f4d41524b45545f4e4f545f535550504f52544544000000000000000000000000604482015260640161078e565b610d8a82600801548360070154846001015443612fdb565b80845281546001830154610d9d92612645565b6020840152610dab86613284565b60408401819052600090610dc0908890614592565b905083604001518460200151610dd6919061457a565b60608501819052825460068501549091610def9161457a565b610df99190614592565b6080850152610e07336132ea565b61018086018190526101608601919091525115610e665760405162461bcd60e51b815260206004820181905260248201527f424f52524f575f4143434f554e545f53484f525446414c4c5f50524553454e54604482015260640161078e565b610e748885604001516133cd565b6101a08501819052610160850151905190511015610efa5760405162461bcd60e51b815260206004820152602160248201527f424f52524f575f414d4f554e545f4c49515549444954595f53484f525446414c60448201527f4c00000000000000000000000000000000000000000000000000000000000000606482015260840161078e565b610f038861304e565b60a08501819052610f15908890614592565b60c0850152600583015460048401546001850154610f3592919043612fdb565b60e0850152600283015460c085015160808601516040517f517cf73e0000000000000000000000000000000000000000000000000000000081526001600160a01b038c811660048301526024820193909352604481019190915291169063517cf73e9060640160206040518083038186803b158015610fb357600080fd5b505afa158015610fc7573d6000803e3d6000fd5b505050506040513d601f19601f82011682018060405250810190610feb91906145a9565b610100850152600283015460c085015160808601516040517fed2b5a3c0000000000000000000000000000000000000000000000000000000081526001600160a01b038c811660048301526024820193909352604481019190915291169063ed2b5a3c9060640160206040518083038186803b15801561106a57600080fd5b505afa15801561107e573d6000803e3d6000fd5b505050506040513d601f19601f820116820180604052508101906110a291906145a9565b61012085018190524360018086019190915560808601516006860155610100860151600486015560e086015160058601556007850191909155845160088501819055835461014087015260608601518455908301553360009081526012602090815260408083206001600160a01b038c1684529091528120805483929061112a90849061457a565b9091555061113b90508833896130e3565b610140840151604080860151845482513381526001600160a01b038d1660208201528084018c90526060810194909452608084019190915260a0830152517f6b69190ebbb96f162b04dc222ef96416f9dca9a415b6dd183c79424501113e189181900360c00190a1600195505050505060155481146111b957600080fd5b5092915050565b6000806111cc83611dfc565b519392505050565b60008060006111e2846132ea565b915091506111ef82511590565b15611211576111fd8161348a565b611209906000196145c2565b949350505050565b6112098261348a565b6000806000806000806000600c6000896001600160a01b03166001600160a01b03168152602001908152602001600020905061126481600501548260040154836001015443612fdb565b94506112798160030154826005015487612645565b935061129381600801548260070154836001015443612fdb565b92506112a88160060154826008015485612645565b93989397509295505050505050565b6007546000906001600160a01b0316331461133a5760405162461bcd60e51b815260206004820152602a60248201527f5345545f4d41524b45545f494e5445524553545f524154455f4d4f44454c5f4f60448201527f574e45525f434845434b00000000000000000000000000000000000000000000606482015260840161078e565b6001600160a01b0382166113905760405162461bcd60e51b815260206004820152601860248201527f52617465204d6f64656c2063616e6e6f74206265203078300000000000000000604482015260640161078e565b506001600160a01b039182166000908152600c6020526040902060020180547fffffffffffffffffffffffff00000000000000000000000000000000000000001691909216179055600190565b6000806000806113ec856134a2565b9051905190969095509350505050565b6000600160156000828254611411919061457a565b909155505060155460115460ff161561146c5760405162461bcd60e51b815260206004820152600f60248201527f436f6e7472616374207061757365640000000000000000000000000000000000604482015260640161078e565b61147684336131e4565b6114d360405180610160016040528060008152602001600081526020016000815260200160008152602001600081526020016000815260200160008152602001600081526020016000815260200160008152602001600081525090565b6001600160a01b0385166000818152600c60209081526040808320338452600b835281842094845293909152902060088201546007830154600184015461151c92919043612fdb565b8084528154600183015461152f92612645565b602084015260005486141561155f5761155561154b883361366f565b8460200151613706565b6040840152611567565b604083018690525b8260400151836020015161157b9190614592565b60608401526040830151611592908890339061371d565b8054606084015160068401546115a8919061457a565b6115b29190614592565b60808401526115c08761304e565b60a0840181905260408401516115d59161457a565b60c08401526005820154600483015460018401546115f592919043612fdb565b60e0840152600282015460c084015160808501516040517f517cf73e0000000000000000000000000000000000000000000000000000000081526001600160a01b038b811660048301526024820193909352604481019190915291169063517cf73e9060640160206040518083038186803b15801561167357600080fd5b505afa158015611687573d6000803e3d6000fd5b505050506040513d601f19601f820116820180604052508101906116ab91906145a9565b610100840152600282015460c084015160808501516040517fed2b5a3c0000000000000000000000000000000000000000000000000000000081526001600160a01b038b811660048301526024820193909352604481019190915291169063ed2b5a3c9060640160206040518083038186803b15801561172a57600080fd5b505afa15801561173e573d6000803e3d6000fd5b505050506040513d601f19601f8201168201806040525081019061176291906145a9565b61012084018190524360018085019190915560808501516006850155610100850151600485015560e0850151600585015560078401919091558351600884018190558254610140860152606085015183559082015560408301516117c990889033906138ee565b6117dd8733856040015185600501546139ee565b604080840151610140850151835483513381526001600160a01b038c16602082015293840192909252606083015260808201527f550e7e464126359c6adc43831f011682856b177df6c49c0af6675dd2a063649d9060a0015b60405180910390a16001945050505060155481146111b957600080fd5b600d818154811061186357600080fd5b6000918252602090912001546001600160a01b0316905081565b6007546000906001600160a01b031633146118da5760405162461bcd60e51b815260206004820152600a60248201527f4f6e6c792061646d696e00000000000000000000000000000000000000000000604482015260640161078e565b6001600160a01b0382166119305760405162461bcd60e51b815260206004820152601860248201527f52617465204d6f64656c2063616e6e6f74206265203078300000000000000000604482015260640161078e565b600d546010116119a85760405162461bcd60e51b815260206004820152602b60248201527f457863656564696e6720746865206d6178206e756d626572206f66206d61726b60448201527f65747320616c6c6f776564000000000000000000000000000000000000000000606482015260840161078e565b6001600160a01b038381166000908152600c6020526040902060020180547fffffffffffffffffffffffff0000000000000000000000000000000000000000169184169190911790556119fa83613c24565b6001600160a01b0383166000908152600c6020526040902080547fffffffffffffffffffffffffffffffffffffffffffffffffffffffffffffff0016600117815560050154611a63576001546001600160a01b0384166000908152600c60205260409020600501555b6001600160a01b0383166000908152600c6020526040902060080154611aa3576001546001600160a01b0384166000908152600c60205260409020600801555b50600192915050565b6007546000906001600160a01b03163314611b095760405162461bcd60e51b815260206004820152601f60248201527f5345545f5249534b5f504152414d45544552535f4f574e45525f434845434b00604482015260640161078e565b6005548310158015611b1d57506006548211155b611bb55760405162461bcd60e51b815260206004820152605960248201527f4c69717569646174696f6e20646973636f756e74206973206d6f72652074686160448201527f6e206d617820646973636f756e74206f7220636f6c6c61746572616c2072617460648201527f696f206973206c657373207468616e206d696e20726174696f00000000000000608482015260a40161078e565b60408051602080820183528582528251808201845285815283518083018552600554815284519283019094526006548252919290611bf584835190511090565b15611c425760405162461bcd60e51b815260206004820152601860248201527f494e56414c49445f434f4c4c41544552414c5f524154494f0000000000000000604482015260640161078e565b825181511015611c945760405162461bcd60e51b815260206004820152601c60248201527f494e56414c49445f4c49515549444154494f4e5f444953434f554e5400000000604482015260640161078e565b604080516020810190915260008152611cc3846040518060200160405280670de0b6b3a7640000815250613cea565b9050611cd28582519051111590565b15611d1f5760405162461bcd60e51b815260206004820181905260248201527f494e56414c49445f434f4d42494e45445f5249534b5f504152414d4554455253604482015260640161078e565b50509151600e55516010555060019392505050565b6007546000906001600160a01b03163314611d915760405162461bcd60e51b815260206004820152601a60248201527f53555350454e445f4d41524b45545f4f574e45525f434845434b000000000000604482015260640161078e565b6001600160a01b0382166000908152600c602052604090205460ff16611db957506001919050565b506001600160a01b03166000908152600c6020526040902080547fffffffffffffffffffffffffffffffffffffffffffffffffffffffffffffff00169055600190565b6040805160208101909152600081526009546001600160a01b0316611e635760405162461bcd60e51b815260206004820152600e60248201527f4f7261636c65206973205a65726f000000000000000000000000000000000000604482015260640161078e565b6009546040517fb3596f070000000000000000000000000000000000000000000000000000000081526001600160a01b038481166004830152600092839291169063b3596f0790602401604080518083038186803b158015611ec457600080fd5b505afa158015611ed8573d6000803e3d6000fd5b505050506040513d601f19601f82011682018060405250810190611efc919061467e565b90925090506000611f1160ff83166012614592565b9050611f1e81600a614798565b611f2890846147a4565b604080516020810190915290815295945050505050565b60115460009060ff1615611f955760405162461bcd60e51b815260206004820152600f60248201527f436f6e7472616374207061757365640000000000000000000000000000000000604482015260640161078e565b611f9f8386613d1f565b611fa98333613d1f565b611fb384866131e4565b611fbb614215565b6001600160a01b038087168083528682166020808501829052336040808701918252898616606088018190526000858152600c8552828120828252838220888352600b8752848320978352968652838220978252600a808752848320848452875284832095519099168252978552828120918152935290912091929161204089611dfc565b61038087015261204f8a611dfc565b866103a0018190525061207085600801548660070154876001015443612fdb565b608087018190528354600185015461208792612645565b6101008701526005840154600485015460018601546120a892919043612fdb565b60e08701819052825460018401546120bf92612645565b6101c08701528054600182015460e08801516120dc929190612645565b61020087015281546101c087015160038601546120f9919061457a565b6121039190614592565b61024087018190528154610200880151909161211f919061457a565b6121299190614592565b6102408701526103a08601516103808701516101c088015161214c929190613d8d565b610300870152845460ff16156121ab5761216c8b876103a001518c613e39565b6102e08701526101008601516103008701516121889190613706565b61032087018190526102e08701516121a09190613706565b6103208701526121c6565b6121bf866101000151876103000151613706565b6103208701525b6000548814156121e1576103208601516103408701526121ea565b61034086018890525b856103200151866103400151106122435760405162461bcd60e51b815260206004820152601f60248201527f4c49515549444154455f434c4f53455f414d4f554e545f544f4f5f4849474800604482015260640161078e565b61225d866103a00151876103800151886103400151613f45565b6103608701526040860151610340870151612279918c9161371d565b85610340015186610100015161228f9190614592565b61012087018190528354600687015490916122a99161457a565b6122b39190614592565b6101408701526122c28a61304e565b61026087018190526103408701516122d99161457a565b6102808701526005850154600486015460018701546122fa92919043612fdb565b60a087015260028501546102808701516101408801516040517f517cf73e0000000000000000000000000000000000000000000000000000000081526001600160a01b038e811660048301526024820193909352604481019190915291169063517cf73e9060640160206040518083038186803b15801561237a57600080fd5b505afa15801561238e573d6000803e3d6000fd5b505050506040513d601f19601f820116820180604052508101906123b291906145a9565b6102a087015260028501546102808701516101408801516040517fed2b5a3c0000000000000000000000000000000000000000000000000000000081526001600160a01b038e811660048301526024820193909352604481019190915291169063ed2b5a3c9060640160206040518083038186803b15801561243357600080fd5b505afa158015612447573d6000803e3d6000fd5b505050506040513d601f19601f8201168201806040525081019061246b91906145a9565b6102c087015260088401546007850154600186015461248c92919043612fdb565b60c08701526103608601516101c08701516124a79190614592565b6101e08701526103608601516102008701516124c3919061457a565b610220870181905243600180880182905561014089015160068901556102a0890151600489015560a08901516005808a01919091556102c08a015160078a015560808a01516008808b01829055898401949094556102408b015160038a015560e08b015191890182905560c08b01519389019390935586546101608b01526101208a015187558682019290925584546101808a01526101e0890151855584810182905583546101a08a015291835590820155604086015161034087015161258b918c916138ee565b6125a48a87604001518861034001518960a001516139ee565b85516020808801516101008901516103408a01516040808c01516060808e01516103608f015184516001600160a01b039a8b168152978a1698880198909852928601949094529284019190915290841660808301529290921660a083015260c08201527fea875c193740bd26dcfcd2e8dc9ac63cc31ee98ac4c001575746d75c30bab5b39060e00160405180910390a15060019a9950505050505050505050565b60008361265457506000612670565b600061266083866147a4565b905061266c84826147c3565b9150505b9392505050565b600060016015600082825461268c919061457a565b909155505060155460115460ff16156126e75760405162461bcd60e51b815260206004820152600f60248201527f436f6e7472616374207061757365640000000000000000000000000000000000604482015260640161078e565b6001600160a01b03841661273d5760405162461bcd60e51b815260206004820152601b60248201527f41737365742063616e2774206265207a65726f20616464726573730000000000604482015260640161078e565b6127478433613d1f565b6001600160a01b0384166000908152600c60205260409020805460ff166127b05760405162461bcd60e51b815260206004820152601460248201527f4d41524b45545f4e4f545f535550504f52544544000000000000000000000000604482015260640161078e565b336000908152600a602090815260408083206001600160a01b03891684528252808320815161014081018352848152928301849052908201839052606082018390526080820183905260a0820183905260c0820183905260e08201839052610100820183905261012082019290925261282a87338861371d565b61284283600501548460040154856001015443612fdb565b602082018190528254600184015461285992612645565b6040820181905261286b90879061457a565b606082018190528254600385015490916128849161457a565b61288e9190614592565b608082015261289c8761304e565b60a082018190526128ae90879061457a565b60c08201819052600284015460068501546040517f517cf73e0000000000000000000000000000000000000000000000000000000081526001600160a01b038b811660048301526024820194909452604481019190915291169063517cf73e9060640160206040518083038186803b15801561292957600080fd5b505afa15801561293d573d6000803e3d6000fd5b505050506040513d601f19601f8201168201806040525081019061296191906145a9565b60e082015260088301546007840154600185015461298192919043612fdb565b610100820152600283015460c082015160068501546040517fed2b5a3c0000000000000000000000000000000000000000000000000000000081526001600160a01b038b811660048301526024820193909352604481019190915291169063ed2b5a3c9060640160206040518083038186803b158015612a0057600080fd5b505afa158015612a14573d6000803e3d6000fd5b505050506040513d601f19601f82011682018060405250810190612a3891906145a9565b6101208201819052436001808601919091556080830151600386015560e08301516004860155602083015160058601819055600786019290925561010083015160088601558354835260608301518455830155612a968733886138ee565b80518254604080513381526001600160a01b038b166020820152908101899052606081019290925260808201527f4ea5606ff36959d6c1a24f693661d800a98dd80c0fb8469a665d2ec7e8313c219060a001611836565b6000600160156000828254612b02919061457a565b909155505060155460115460ff1615612b5d5760405162461bcd60e51b815260206004820152600f60248201527f436f6e7472616374207061757365640000000000000000000000000000000000604482015260640161078e565b612b678433613d1f565b6001600160a01b0384166000818152600c60209081526040808320338452600a8352818420948452939091529020612b9d61431f565b612ba6336132ea565b6101a0830152610180820152600583015460048401546001850154612bcd92919043612fdb565b6040820181905282546001840154612be492612645565b6060820152600054861415612c2057612c0287826101800151613fda565b61016082018190526060820151612c199190613706565b8152612c24565b8581525b612c2d8761304e565b60c082018190528151612c3f91614592565b60e082015280516060820151612c559190614592565b60808201526101a08101515115612cd45760405162461bcd60e51b815260206004820152602260248201527f57495448445241575f4143434f554e545f53484f525446414c4c5f505245534560448201527f4e54000000000000000000000000000000000000000000000000000000000000606482015260840161078e565b612ce2878260000151613fff565b6101c08201819052610180820151905190511015612d685760405162461bcd60e51b815260206004820152602360248201527f57495448445241575f414d4f554e545f4c49515549444954595f53484f52544660448201527f414c4c0000000000000000000000000000000000000000000000000000000000606482015260840161078e565b815460808201516003850154612d7e919061457a565b612d889190614592565b60a0820152600283015460e082015160068501546040517f517cf73e0000000000000000000000000000000000000000000000000000000081526001600160a01b038b811660048301526024820193909352604481019190915291169063517cf73e9060640160206040518083038186803b158015612e0657600080fd5b505afa158015612e1a573d6000803e3d6000fd5b505050506040513d601f19601f82011682018060405250810190612e3e91906145a9565b610100820152600883015460078401546001850154612e5f92919043612fdb565b610120820152600283015460e082015160068501546040517fed2b5a3c0000000000000000000000000000000000000000000000000000000081526001600160a01b038b811660048301526024820193909352604481019190915291169063ed2b5a3c9060640160206040518083038186803b158015612ede57600080fd5b505afa158015612ef2573d6000803e3d6000fd5b505050506040513d601f19601f82011682018060405250810190612f1691906145a9565b61014082018190524360018086019190915560a0830151600386015561010083015160048601556040830151600586018190556007860192909255610120830151600886015583546020840152608083015184558301558051612f7c90889033906130e3565b80516020808301518454604080513381526001600160a01b038d1694810194909452830193909352606082015260808101919091527f56559a17e3aa8ea4b05036eaf31aeaf9fb71fc1b8865b6389647639940bed0309060a001611836565b600080612fe88484614592565b9050600061300460405180602001604052808881525083614077565b90506000613028826040518060200160405280670de0b6b3a7640000815250613cea565b90506000613036828a614077565b90506130418161348a565b9998505050505050505050565b6040517f70a0823100000000000000000000000000000000000000000000000000000000815230600482015260009082906001600160a01b038216906370a082319060240160206040518083038186803b1580156130ab57600080fd5b505afa1580156130bf573d6000803e3d6000fd5b505050506040513d601f19601f8201168201806040525081019061267091906145a9565b6040517fa9059cbb0000000000000000000000000000000000000000000000000000000081526001600160a01b03838116600483015260248201839052849160009183169063a9059cbb90604401600060405180830381600087803b15801561314b57600080fd5b505af115801561315f573d6000803e3d6000fd5b505050503d60008114613179576020811461318357600080fd5b600019915061318f565b60206000803e60005191505b50806131dd5760405162461bcd60e51b815260206004820152601960248201527f544f4b454e5f5452414e534645525f4f55545f4641494c454400000000000000604482015260640161078e565b5050505050565b6013546001600160a01b03166131f8575050565b6013546040517fdb57d0c70000000000000000000000000000000000000000000000000000000081526001600160a01b0384811660048301528381166024830152600060448301529091169063db57d0c7906064015b600060405180830381600087803b15801561326857600080fd5b505af115801561327c573d6000803e3d6000fd5b505050505050565b6040805160208101909152600f54908190526000906132a1575090565b6040805160208082018352600f5482528251908101909252670de0b6b3a764000082526000916132d19190613cea565b905060006132df8285614077565b90506112098161348a565b604080516020810190915260008152604080516020810190915260008152600080613314856134a2565b9150915061332e6040518060200160405280600081525090565b604080516020808201835285518252825180820184526000815283518083018552600e548152845192830190945285518252919261336b91614094565b905061337982825190511090565b156133a5576133888183614103565b604080516020810190915260008152999098509650505050505050565b6133af8282614103565b60408051602081019091526000815290999098509650505050505050565b60408051602081019091526000815260408051602081019091526000815260408051602081019091526000815261340385611dfc565b915061340e82511590565b1561345b5760405162461bcd60e51b815260206004820152601360248201527f4d495353494e475f41535345545f505249434500000000000000000000000000604482015260640161078e565b6040805160208101909152600e5481526134759083614094565b90506134818185614077565b95945050505050565b805160009061072f90670de0b6b3a7640000906147c3565b6040805160208101909152600081526040805160208101909152600081526134c8614395565b6040805160208082018352600080835260e08501929092528251808201909352818352610120840192909252600d54918301919091525b816020015181101561365957600d818154811061351e5761351e6147fe565b60009182526020808320909101546001600160a01b039081168086528352600c82526040808420898316808652600a85528286208851851687528552828620908652600b855282862088519094168652929093529092208254919291156135dc5761359783600501548460040154856001015443612fdb565b60408601819052825460018401546135ae92612645565b6060860181905285516135c091613fff565b60c0860181905260e08601516135d69190613cea565b60e08601525b805415613643576135fb83600801548460070154856001015443612fdb565b608086018190528154600183015461361292612645565b60a08601819052855161362491613fff565b610100860181905261012086015161363c9190613cea565b6101208601525b50505080806136519061482d565b9150506134ff565b508060e001518161012001519250925050915091565b6040517f70a082310000000000000000000000000000000000000000000000000000000081526001600160a01b03828116600483015260009184918216906370a082319060240160206040518083038186803b1580156136ce57600080fd5b505afa1580156136e2573d6000803e3d6000fd5b505050506040513d601f19601f8201168201806040525081019061120991906145a9565b60008183101561371757508161072f565b50919050565b6040517fdd62ed3e0000000000000000000000000000000000000000000000000000000081526001600160a01b0383811660048301523060248301528491839183169063dd62ed3e9060440160206040518083038186803b15801561378157600080fd5b505afa158015613795573d6000803e3d6000fd5b505050506040513d601f19601f820116820180604052508101906137b991906145a9565b116138065760405162461bcd60e51b815260206004820152601c60248201527f544f4b454e5f494e53554646494349454e545f414c4c4f57414e434500000000604482015260640161078e565b6040517f70a082310000000000000000000000000000000000000000000000000000000081526001600160a01b0384811660048301528391908316906370a082319060240160206040518083038186803b15801561386357600080fd5b505afa158015613877573d6000803e3d6000fd5b505050506040513d601f19601f8201168201806040525081019061389b91906145a9565b116138e85760405162461bcd60e51b815260206004820152601a60248201527f544f4b454e5f494e53554646494349454e545f42414c414e4345000000000000604482015260640161078e565b50505050565b6040517f23b872dd0000000000000000000000000000000000000000000000000000000081526001600160a01b0383811660048301523060248301526044820183905284916000918316906323b872dd90606401600060405180830381600087803b15801561395c57600080fd5b505af1158015613970573d6000803e3d6000fd5b505050503d6000811461398a576020811461399457600080fd5b60001991506139a0565b60206000803e60005191505b50806131dd5760405162461bcd60e51b815260206004820152601560248201527f544f4b454e5f5452414e534645525f4641494c45440000000000000000000000604482015260640161078e565b600754613a059085906001600160a01b0316613d1f565b6001600160a01b038084166000908152601260209081526040808320938816835292905290812054156131dd576001600160a01b03808516600090815260126020908152604080832093891683529290522054831015613a66575081613a8e565b506001600160a01b038084166000908152601260209081526040808320938816835292905220545b6007546001600160a01b039081166000908152600a60209081526040808320898516808552908352818420825161014081018452858152808501869052808401869052606081018690526080810186905260a0810186905260c0810186905260e0810186905261010081018690526101208101869052958a168552601284528285209185529252822080549193928592613b29908490614592565b909155505081546001830154613b40919086612645565b60408201819052613b5290849061457a565b6060820181905282546001600160a01b0389166000908152600c60205260409020600301549091613b829161457a565b613b8c9190614592565b60808281018290526001600160a01b038981166000818152600c6020908152604091829020600301959095558654808752606080880151808a5560018a018c90556007548451961686529685019390935290830188905290820152908101919091527fa4317c2dd8ca95b5d74e51fdd145f7beb968acdba1579f140fdf7113789f16819060a00160405180910390a150505050505050565b60005b600d54811015613c7f57816001600160a01b0316600d8281548110613c4e57613c4e6147fe565b6000918252602090912001546001600160a01b03161415613c6d575050565b80613c778161482d565b915050613c27565b50600d80546001810182556000919091527fd7b6990105719101dabeb77144f2a3385c8033acd3af97e9423a695e81ad1eb50180547fffffffffffffffffffffffff0000000000000000000000000000000000000000166001600160a01b0392909216919091179055565b60408051602081019091526000815281518351600091613d099161457a565b6040805160208101909152908152949350505050565b6013546001600160a01b0316613d33575050565b6013546040517fd511e0890000000000000000000000000000000000000000000000000000000081526001600160a01b0384811660048301528381166024830152600060448301529091169063d511e0899060640161324e565b6000613da56040518060200160405280600081525090565b6040805160208101909152600081526040805160208101909152600081526040805160208101909152600081526040805160208082018352670de0b6b3a7640000825282519081019092526010548252613dfe91613cea565b9350613e0a8787614077565b9250613e168489614094565b9150613e228383614122565b9050613e2d8161348a565b98975050505050505050565b6000613e516040518060200160405280600081525090565b60408051602080820183526000808352835180830185528181528451808401865282815285518085018752838152865194850190965291835292939091613e978a6132ea565b6040805160208082018352600e54825282519081019092526010548252929850909650613ec49190614103565b9350613ee6846040518060200160405280670de0b6b3a7640000815250614103565b9250613ef28984614094565b91506000613f008b8a6106be565b90506000613f1e604051806020016040528060145481525083614077565b9050613f2a8185614122565b9250613f358361348a565b9c9b505050505050505050505050565b6000613f5d6040518060200160405280600081525090565b6040805160208101909152600081526040805160208101909152600081526040805160208101909152600081526040805160208082018352670de0b6b3a7640000825282519081019092526010548252613fb691613cea565b9350613fc28885614094565b9250613fce8387614077565b9150613e228288614122565b600080613fe684611dfc565b90506000613ff48483614122565b90506134818161348a565b604080516020810190915260008152600061401984611dfc565b905061402481511590565b156140715760405162461bcd60e51b815260206004820152601360248201527f4d495353494e475f41535345545f505249434500000000000000000000000000604482015260640161078e565b61120981845b604080516020810190915260008082528351613d099084906147a4565b604080516020810190915260008152815183516000916140b3916147a4565b90506000816140cb6002670de0b6b3a76400006147c3565b6140d5919061457a565b905060006140eb670de0b6b3a7640000836147c3565b60408051602081019091529081529695505050505050565b60408051602081019091526000815281518351600091613d0991614592565b604080516020810190915260008152825182516126709190604080516020810190915260008152600061415d670de0b6b3a7640000856147a4565b90506000611f2884836147c3565b604051806101c0016040528060008152602001600081526020016000815260200160008152602001600081526020016000815260200160008152602001600081526020016000815260200160008152602001600081526020016141da6040518060200160405280600081525090565b81526020016141f56040518060200160405280600081525090565b81526020016142106040518060200160405280600081525090565b905290565b604051806103c0016040528060006001600160a01b0316815260200160006001600160a01b0316815260200160006001600160a01b0316815260200160006001600160a01b031681526020016000815260200160008152602001600081526020016000815260200160008152602001600081526020016000815260200160008152602001600081526020016000815260200160008152602001600081526020016000815260200160008152602001600081526020016000815260200160008152602001600081526020016000815260200160008152602001600081526020016000815260200160008152602001600081526020016141f56040518060200160405280600081525090565b604051806101e001604052806000815260200160008152602001600081526020016000815260200160008152602001600081526020016000815260200160008152602001600081526020016000815260200160008152602001600081526020016141da6040518060200160405280600081525090565b60405180610140016040528060006001600160a01b0316815260200160008152602001600081526020016000815260200160008152602001600081526020016143ea6040518060200160405280600081525090565b81526020016141da6040518060200160405280600081525090565b80356001600160a01b038116811461441c57600080fd5b919050565b6000806040838503121561443457600080fd5b61443d83614405565b915061444b60208401614405565b90509250929050565b60006020828403121561446657600080fd5b61267082614405565b6000806040838503121561448257600080fd5b61448b83614405565b946020939093013593505050565b6000602082840312156144ab57600080fd5b5035919050565b600080604083850312156144c557600080fd5b50508035926020909101359150565b600080600080608085870312156144ea57600080fd5b6144f385614405565b935061450160208601614405565b925061450f60408601614405565b9396929550929360600135925050565b60008060006060848603121561453457600080fd5b505081359360208301359350604090920135919050565b7f4e487b7100000000000000000000000000000000000000000000000000000000600052601160045260246000fd5b6000821982111561458d5761458d61454b565b500190565b6000828210156145a4576145a461454b565b500390565b6000602082840312156145bb57600080fd5b5051919050565b60007f7fffffffffffffffffffffffffffffffffffffffffffffffffffffffffffffff6000841360008413858304851182821616156146035761460361454b565b7f8000000000000000000000000000000000000000000000000000000000000000600087128682058812818416161561463e5761463e61454b565b6000871292508782058712848416161561465a5761465a61454b565b878505871281841616156146705761467061454b565b505050929093029392505050565b6000806040838503121561469157600080fd5b82519150602083015160ff811681146146a957600080fd5b809150509250929050565b600181815b808511156146ef5781600019048211156146d5576146d561454b565b808516156146e257918102915b93841c93908002906146b9565b509250929050565b6000826147065750600161072f565b816147135750600061072f565b816001811461472957600281146147335761474f565b600191505061072f565b60ff8411156147445761474461454b565b50506001821b61072f565b5060208310610133831016604e8410600b8410161715614772575081810a61072f565b61477c83836146b4565b80600019048211156147905761479061454b565b029392505050565b600061267083836146f7565b60008160001904831182151516156147be576147be61454b565b500290565b6000826147f9577f4e487b7100000000000000000000000000000000000000000000000000000000600052601260045260246000fd5b500490565b7f4e487b7100000000000000000000000000000000000000000000000000000000600052603260045260246000fd5b60006000198214156148415761484161454b565b506001019056fea264697066735822122010e1987e2383dfd49e0ce89fafa6b11d439d298c17d5e7e7f8bc4e4fb661959864736f6c63430008090033",
  "linkReferences": {},
  "deployedLinkReferences": {}
}