{
  "_format": "hh-sol-artifact-1",
  "contractName": "DeltaOpen",
  "sourceName": "contracts/DeltaOpen.sol",
  "abi": [
    {
      "inputs": [
        {
          "internalType": "address",
          "name": "oracle_",
          "type": "address"
        },
        {
          "internalType": "uint256",
          "name": "newCloseFactorMantissa_",
          "type": "uint256"
        }
      ],
      "stateMutability": "nonpayable",
      "type": "constructor"
    },
    {
      "anonymous": false,
      "inputs": [
        {
          "indexed": false,
          "internalType": "address",
          "name": "targetAccount",
          "type": "address"
        },
        {
          "indexed": false,
          "internalType": "address",
          "name": "assetBorrow",
          "type": "address"
        },
        {
          "indexed": false,
          "internalType": "uint256",
          "name": "borrowBalanceAccumulated",
          "type": "uint256"
        },
        {
          "indexed": false,
          "internalType": "uint256",
          "name": "amountRepaid",
          "type": "uint256"
        },
        {
          "indexed": false,
          "internalType": "address",
          "name": "liquidator",
          "type": "address"
        },
        {
          "indexed": false,
          "internalType": "address",
          "name": "assetCollateral",
          "type": "address"
        },
        {
          "indexed": false,
          "internalType": "uint256",
          "name": "amountSeized",
          "type": "uint256"
        }
      ],
      "name": "BorrowLiquidated",
      "type": "event"
    },
    {
      "anonymous": false,
      "inputs": [
        {
          "indexed": false,
          "internalType": "address",
          "name": "account",
          "type": "address"
        },
        {
          "indexed": false,
          "internalType": "address",
          "name": "asset",
          "type": "address"
        },
        {
          "indexed": false,
          "internalType": "uint256",
          "name": "amount",
          "type": "uint256"
        },
        {
          "indexed": false,
          "internalType": "uint256",
          "name": "startingBalance",
          "type": "uint256"
        },
        {
          "indexed": false,
          "internalType": "uint256",
          "name": "newBalance",
          "type": "uint256"
        }
      ],
      "name": "BorrowRepaid",
      "type": "event"
    },
    {
      "anonymous": false,
      "inputs": [
        {
          "indexed": false,
          "internalType": "address",
          "name": "account",
          "type": "address"
        },
        {
          "indexed": false,
          "internalType": "address",
          "name": "asset",
          "type": "address"
        },
        {
          "indexed": false,
          "internalType": "uint256",
          "name": "amount",
          "type": "uint256"
        },
        {
          "indexed": false,
          "internalType": "uint256",
          "name": "startingBalance",
          "type": "uint256"
        },
        {
          "indexed": false,
          "internalType": "uint256",
          "name": "borrowAmountWithFee",
          "type": "uint256"
        },
        {
          "indexed": false,
          "internalType": "uint256",
          "name": "newBalance",
          "type": "uint256"
        }
      ],
      "name": "BorrowTaken",
      "type": "event"
    },
    {
      "anonymous": false,
      "inputs": [
        {
          "indexed": false,
          "internalType": "address",
          "name": "asset",
          "type": "address"
        },
        {
          "indexed": false,
          "internalType": "uint256",
          "name": "equityAvailableBefore",
          "type": "uint256"
        },
        {
          "indexed": false,
          "internalType": "uint256",
          "name": "amount",
          "type": "uint256"
        },
        {
          "indexed": false,
          "internalType": "address",
          "name": "owner",
          "type": "address"
        }
      ],
      "name": "EquityWithdrawn",
      "type": "event"
    },
    {
      "anonymous": false,
      "inputs": [
        {
          "indexed": false,
          "internalType": "address",
          "name": "account",
          "type": "address"
        },
        {
          "indexed": false,
          "internalType": "address",
          "name": "asset",
          "type": "address"
        },
        {
          "indexed": false,
          "internalType": "uint256",
          "name": "amount",
          "type": "uint256"
        },
        {
          "indexed": false,
          "internalType": "uint256",
          "name": "startingBalance",
          "type": "uint256"
        },
        {
          "indexed": false,
          "internalType": "uint256",
          "name": "newBalance",
          "type": "uint256"
        }
      ],
      "name": "SupplyOrgFeeAsAdmin",
      "type": "event"
    },
    {
      "anonymous": false,
      "inputs": [
        {
          "indexed": false,
          "internalType": "address",
          "name": "account",
          "type": "address"
        },
        {
          "indexed": false,
          "internalType": "address",
          "name": "asset",
          "type": "address"
        },
        {
          "indexed": false,
          "internalType": "uint256",
          "name": "amount",
          "type": "uint256"
        },
        {
          "indexed": false,
          "internalType": "uint256",
          "name": "startingBalance",
          "type": "uint256"
        },
        {
          "indexed": false,
          "internalType": "uint256",
          "name": "newBalance",
          "type": "uint256"
        }
      ],
      "name": "SupplyReceived",
      "type": "event"
    },
    {
      "anonymous": false,
      "inputs": [
        {
          "indexed": false,
          "internalType": "address",
          "name": "account",
          "type": "address"
        },
        {
          "indexed": false,
          "internalType": "address",
          "name": "asset",
          "type": "address"
        },
        {
          "indexed": false,
          "internalType": "uint256",
          "name": "amount",
          "type": "uint256"
        },
        {
          "indexed": false,
          "internalType": "uint256",
          "name": "startingBalance",
          "type": "uint256"
        },
        {
          "indexed": false,
          "internalType": "uint256",
          "name": "newBalance",
          "type": "uint256"
        }
      ],
      "name": "SupplyWithdrawn",
      "type": "event"
    },
    {
      "inputs": [],
      "name": "_guardCounter",
      "outputs": [
        {
          "internalType": "uint256",
          "name": "",
          "type": "uint256"
        }
      ],
      "stateMutability": "view",
      "type": "function"
    },
    {
      "inputs": [
        {
          "internalType": "address",
          "name": "asset",
          "type": "address"
        },
        {
          "internalType": "address",
          "name": "interestRateModel",
          "type": "address"
        }
      ],
      "name": "_setMarketIRateModel",
      "outputs": [
        {
          "internalType": "bool",
          "name": "",
          "type": "bool"
        }
      ],
      "stateMutability": "nonpayable",
      "type": "function"
    },
    {
      "inputs": [
        {
          "internalType": "uint256",
          "name": "collateralRatioMantissa",
          "type": "uint256"
        },
        {
          "internalType": "uint256",
          "name": "liquidationDiscountMantissa",
          "type": "uint256"
        }
      ],
      "name": "_setRiskParameters",
      "outputs": [
        {
          "internalType": "bool",
          "name": "",
          "type": "bool"
        }
      ],
      "stateMutability": "nonpayable",
      "type": "function"
    },
    {
      "inputs": [
        {
          "internalType": "address",
          "name": "asset",
          "type": "address"
        },
        {
          "internalType": "address",
          "name": "interestRateModel",
          "type": "address"
        }
      ],
      "name": "_supportMarket",
      "outputs": [
        {
          "internalType": "bool",
          "name": "",
          "type": "bool"
        }
      ],
      "stateMutability": "nonpayable",
      "type": "function"
    },
    {
      "inputs": [
        {
          "internalType": "address",
          "name": "asset",
          "type": "address"
        }
      ],
      "name": "_suspendMarket",
      "outputs": [
        {
          "internalType": "bool",
          "name": "",
          "type": "bool"
        }
      ],
      "stateMutability": "nonpayable",
      "type": "function"
    },
    {
      "inputs": [
        {
          "internalType": "address",
          "name": "asset",
          "type": "address"
        },
        {
          "internalType": "uint256",
          "name": "amount",
          "type": "uint256"
        }
      ],
      "name": "_withdrawEquity",
      "outputs": [
        {
          "internalType": "bool",
          "name": "",
          "type": "bool"
        }
      ],
      "stateMutability": "nonpayable",
      "type": "function"
    },
    {
      "inputs": [],
      "name": "admin",
      "outputs": [
        {
          "internalType": "address",
          "name": "",
          "type": "address"
        }
      ],
      "stateMutability": "view",
      "type": "function"
    },
    {
      "inputs": [
        {
          "internalType": "address",
          "name": "asset",
          "type": "address"
        }
      ],
      "name": "assetPrices",
      "outputs": [
        {
          "internalType": "uint256",
          "name": "",
          "type": "uint256"
        }
      ],
      "stateMutability": "view",
      "type": "function"
    },
    {
      "inputs": [
        {
          "internalType": "address",
          "name": "asset",
          "type": "address"
        },
        {
          "internalType": "uint256",
          "name": "amount",
          "type": "uint256"
        }
      ],
      "name": "borrow",
      "outputs": [
        {
          "internalType": "bool",
          "name": "",
          "type": "bool"
        }
      ],
      "stateMutability": "nonpayable",
      "type": "function"
    },
    {
      "inputs": [
        {
          "internalType": "address",
          "name": "",
          "type": "address"
        },
        {
          "internalType": "address",
          "name": "",
          "type": "address"
        }
      ],
      "name": "borrowBalances",
      "outputs": [
        {
          "internalType": "uint256",
          "name": "principal",
          "type": "uint256"
        },
        {
          "internalType": "uint256",
          "name": "interestIndex",
          "type": "uint256"
        }
      ],
      "stateMutability": "view",
      "type": "function"
    },
    {
      "inputs": [
        {
          "internalType": "address",
          "name": "userAddress",
          "type": "address"
        }
      ],
      "name": "calculateAccountValues",
      "outputs": [
        {
          "internalType": "uint256",
          "name": "",
          "type": "uint256"
        },
        {
          "internalType": "uint256",
          "name": "",
          "type": "uint256"
        }
      ],
      "stateMutability": "view",
      "type": "function"
    },
    {
      "inputs": [
        {
          "internalType": "uint256",
          "name": "startingBalance",
          "type": "uint256"
        },
        {
          "internalType": "uint256",
          "name": "interestIndexStart",
          "type": "uint256"
        },
        {
          "internalType": "uint256",
          "name": "interestIndexEnd",
          "type": "uint256"
        }
      ],
      "name": "calculateBalance",
      "outputs": [
        {
          "internalType": "uint256",
          "name": "",
          "type": "uint256"
        }
      ],
      "stateMutability": "pure",
      "type": "function"
    },
    {
      "inputs": [],
      "name": "closeFactorMantissa",
      "outputs": [
        {
          "internalType": "uint256",
          "name": "",
          "type": "uint256"
        }
      ],
      "stateMutability": "view",
      "type": "function"
    },
    {
      "inputs": [
        {
          "internalType": "uint256",
          "name": "",
          "type": "uint256"
        }
      ],
      "name": "collateralMarkets",
      "outputs": [
        {
          "internalType": "address",
          "name": "",
          "type": "address"
        }
      ],
      "stateMutability": "view",
      "type": "function"
    },
    {
      "inputs": [],
      "name": "collateralRatio",
      "outputs": [
        {
          "internalType": "uint256",
          "name": "mantissa",
          "type": "uint256"
        }
      ],
      "stateMutability": "view",
      "type": "function"
    },
    {
      "inputs": [
        {
          "internalType": "address",
          "name": "asset",
          "type": "address"
        }
      ],
      "name": "fetchAssetPrice",
      "outputs": [
        {
          "components": [
            {
              "internalType": "uint256",
              "name": "mantissa",
              "type": "uint256"
            }
          ],
          "internalType": "struct Exponential.Exp",
          "name": "",
          "type": "tuple"
        }
      ],
      "stateMutability": "view",
      "type": "function"
    },
    {
      "inputs": [
        {
          "internalType": "address",
          "name": "account",
          "type": "address"
        }
      ],
      "name": "getAccountLiquidity",
      "outputs": [
        {
          "internalType": "int256",
          "name": "",
          "type": "int256"
        }
      ],
      "stateMutability": "view",
      "type": "function"
    },
    {
      "inputs": [
        {
          "internalType": "address",
          "name": "account",
          "type": "address"
        },
        {
          "internalType": "address",
          "name": "asset",
          "type": "address"
        }
      ],
      "name": "getBorrowBalance",
      "outputs": [
        {
          "internalType": "uint256",
          "name": "",
          "type": "uint256"
        }
      ],
      "stateMutability": "view",
      "type": "function"
    },
    {
      "inputs": [
        {
          "internalType": "address",
          "name": "account",
          "type": "address"
        },
        {
          "internalType": "address",
          "name": "asset",
          "type": "address"
        }
      ],
      "name": "getBorrowBalanceWithInterest",
      "outputs": [
        {
          "internalType": "uint256",
          "name": "",
          "type": "uint256"
        }
      ],
      "stateMutability": "view",
      "type": "function"
    },
    {
      "inputs": [],
      "name": "getCollateralMarketsLength",
      "outputs": [
        {
          "internalType": "uint256",
          "name": "",
          "type": "uint256"
        }
      ],
      "stateMutability": "view",
      "type": "function"
    },
    {
      "inputs": [
        {
          "internalType": "address",
          "name": "asset",
          "type": "address"
        }
      ],
      "name": "getMarketBalances",
      "outputs": [
        {
          "internalType": "uint256",
          "name": "",
          "type": "uint256"
        },
        {
          "internalType": "uint256",
          "name": "",
          "type": "uint256"
        }
      ],
      "stateMutability": "view",
      "type": "function"
    },
    {
      "inputs": [
        {
          "internalType": "address",
          "name": "account",
          "type": "address"
        },
        {
          "internalType": "address",
          "name": "asset",
          "type": "address"
        }
      ],
      "name": "getSupplyBalance",
      "outputs": [
        {
          "internalType": "uint256",
          "name": "",
          "type": "uint256"
        }
      ],
      "stateMutability": "view",
      "type": "function"
    },
    {
      "inputs": [
        {
          "internalType": "address",
          "name": "account",
          "type": "address"
        },
        {
          "internalType": "address",
          "name": "asset",
          "type": "address"
        }
      ],
      "name": "getSupplyBalanceWithInterest",
      "outputs": [
        {
          "internalType": "uint256",
          "name": "",
          "type": "uint256"
        }
      ],
      "stateMutability": "view",
      "type": "function"
    },
    {
      "inputs": [
        {
          "internalType": "address",
          "name": "targetAccount",
          "type": "address"
        },
        {
          "internalType": "address",
          "name": "assetBorrow",
          "type": "address"
        },
        {
          "internalType": "address",
          "name": "assetCollateral",
          "type": "address"
        },
        {
          "internalType": "uint256",
          "name": "requestedAmountClose",
          "type": "uint256"
        }
      ],
      "name": "liquidateBorrow",
      "outputs": [
        {
          "internalType": "bool",
          "name": "",
          "type": "bool"
        }
      ],
      "stateMutability": "nonpayable",
      "type": "function"
    },
    {
      "inputs": [],
      "name": "liquidationDiscount",
      "outputs": [
        {
          "internalType": "uint256",
          "name": "mantissa",
          "type": "uint256"
        }
      ],
      "stateMutability": "view",
      "type": "function"
    },
    {
      "inputs": [
        {
          "internalType": "address",
          "name": "",
          "type": "address"
        }
      ],
      "name": "markets",
      "outputs": [
        {
          "internalType": "bool",
          "name": "isSupported",
          "type": "bool"
        },
        {
          "internalType": "uint256",
          "name": "blockNumber",
          "type": "uint256"
        },
        {
          "internalType": "address",
          "name": "interestRateModel",
          "type": "address"
        },
        {
          "internalType": "uint256",
          "name": "totalSupply",
          "type": "uint256"
        },
        {
          "internalType": "uint256",
          "name": "supplyRateMantissa",
          "type": "uint256"
        },
        {
          "internalType": "uint256",
          "name": "supplyIndex",
          "type": "uint256"
        },
        {
          "internalType": "uint256",
          "name": "totalBorrows",
          "type": "uint256"
        },
        {
          "internalType": "uint256",
          "name": "borrowRateMantissa",
          "type": "uint256"
        },
        {
          "internalType": "uint256",
          "name": "borrowIndex",
          "type": "uint256"
        }
      ],
      "stateMutability": "view",
      "type": "function"
    },
    {
      "inputs": [],
      "name": "maxLiquidationDiscountMantissa",
      "outputs": [
        {
          "internalType": "uint256",
          "name": "",
          "type": "uint256"
        }
      ],
      "stateMutability": "view",
      "type": "function"
    },
    {
      "inputs": [],
      "name": "minCollateralRatioMantissa",
      "outputs": [
        {
          "internalType": "uint256",
          "name": "",
          "type": "uint256"
        }
      ],
      "stateMutability": "view",
      "type": "function"
    },
    {
      "inputs": [],
      "name": "originationFee",
      "outputs": [
        {
          "internalType": "uint256",
          "name": "mantissa",
          "type": "uint256"
        }
      ],
      "stateMutability": "view",
      "type": "function"
    },
    {
      "inputs": [
        {
          "internalType": "address",
          "name": "",
          "type": "address"
        },
        {
          "internalType": "address",
          "name": "",
          "type": "address"
        }
      ],
      "name": "originationFeeBalance",
      "outputs": [
        {
          "internalType": "uint256",
          "name": "",
          "type": "uint256"
        }
      ],
      "stateMutability": "view",
      "type": "function"
    },
    {
      "inputs": [],
      "name": "paused",
      "outputs": [
        {
          "internalType": "bool",
          "name": "",
          "type": "bool"
        }
      ],
      "stateMutability": "view",
      "type": "function"
    },
    {
      "inputs": [],
      "name": "priceOracle",
      "outputs": [
        {
          "internalType": "contract ChainLink",
          "name": "",
          "type": "address"
        }
      ],
      "stateMutability": "view",
      "type": "function"
    },
    {
      "inputs": [
        {
          "internalType": "address",
          "name": "asset",
          "type": "address"
        },
        {
          "internalType": "uint256",
          "name": "amount",
          "type": "uint256"
        }
      ],
      "name": "repayBorrow",
      "outputs": [
        {
          "internalType": "bool",
          "name": "",
          "type": "bool"
        }
      ],
      "stateMutability": "nonpayable",
      "type": "function"
    },
    {
      "inputs": [],
      "name": "rewardControl",
      "outputs": [
        {
          "internalType": "contract IRewardControl",
          "name": "",
          "type": "address"
        }
      ],
      "stateMutability": "view",
      "type": "function"
    },
    {
      "inputs": [
        {
          "internalType": "address",
          "name": "rewardControl_",
          "type": "address"
        }
      ],
      "name": "setRewardControlAddress",
      "outputs": [
        {
          "internalType": "bool",
          "name": "",
          "type": "bool"
        }
      ],
      "stateMutability": "nonpayable",
      "type": "function"
    },
    {
      "inputs": [
        {
          "internalType": "address",
          "name": "asset",
          "type": "address"
        },
        {
          "internalType": "uint256",
          "name": "amount",
          "type": "uint256"
        }
      ],
      "name": "supply",
      "outputs": [
        {
          "internalType": "bool",
          "name": "",
          "type": "bool"
        }
      ],
      "stateMutability": "nonpayable",
      "type": "function"
    },
    {
      "inputs": [
        {
          "internalType": "address",
          "name": "",
          "type": "address"
        },
        {
          "internalType": "address",
          "name": "",
          "type": "address"
        }
      ],
      "name": "supplyBalances",
      "outputs": [
        {
          "internalType": "uint256",
          "name": "principal",
          "type": "uint256"
        },
        {
          "internalType": "uint256",
          "name": "interestIndex",
          "type": "uint256"
        }
      ],
      "stateMutability": "view",
      "type": "function"
    },
    {
      "inputs": [
        {
          "internalType": "address",
          "name": "asset",
          "type": "address"
        },
        {
          "internalType": "uint256",
          "name": "requestedAmount",
          "type": "uint256"
        }
      ],
      "name": "withdraw",
      "outputs": [
        {
          "internalType": "bool",
          "name": "",
          "type": "bool"
        }
      ],
      "stateMutability": "nonpayable",
      "type": "function"
    }
  ],
  "bytecode": "0x60806040526000196000553480156200001757600080fd5b5060405162004aec38038062004aec8339810160408190526200003a91620001be565b6001600160a01b038216620000965760405162461bcd60e51b815260206004820152601c60248201527f4f7261636c652063616e2774206265205a45524f20616464726573730000000060448201526064015b60405180910390fd5b670de0b6b3a76400008110620001085760405162461bcd60e51b815260206004820152603060248201527f496e76616c6964204f726967696e6174696f6e20466565206f7220436c6f736560448201526f20466163746f72204d616e746973736160801b60648201526084016200008d565b60078054336001600160a01b031991821617909155670de0b6b3a7640000600190815566038d7ea4c680006002819055671158e460913d0000600381905567016345785d8a00006004819055670f43fc2c04ee00006005556006819055604080516020808201835290849052600e9390935580518084018252849052600f939093558251918201909252819052601055601555600980549091166001600160a01b039390931692909217909155601455620001fa565b60008060408385031215620001d257600080fd5b82516001600160a01b0381168114620001ea57600080fd5b6020939093015192949293505050565b6148e2806200020a6000396000f3fe608060405234801561001057600080fd5b50600436106102925760003560e01c8063b4eae1cb11610160578063dbe2bc84116100d8578063f2b9fdb81161008c578063f5c61ce611610071578063f5c61ce614610666578063f851a44014610679578063fc7d42d71461068c57600080fd5b8063f2b9fdb814610640578063f3fef3a31461065357600080fd5b8063e61604cf116100bd578063e61604cf14610611578063e69e464014610624578063e87554461461063757600080fd5b8063dbe2bc84146105dc578063ddec280e146105ef57600080fd5b8063be2eafa11161012f578063bf5bfdfb11610114578063bf5bfdfb146105ad578063c1abfaa3146105b6578063c365a646146105c957600080fd5b8063be2eafa114610591578063beb546151461059a57600080fd5b8063b4eae1cb14610512578063b7adddac1461051c578063b8bb5c421461054e578063ba3777311461055857600080fd5b80635e9a523c1161020e5780638053fcbe116101c25780638e8f294b116101a75780638e8f294b146104315780639f180cf1146104ec578063abdb5ea8146104ff57600080fd5b80638053fcbe146104145780638a0022c61461041e57600080fd5b80636e2ede03116101f35780636e2ede03146103b957806379b29648146103c15780637bc33210146103e957600080fd5b80635e9a523c146103935780635ec88c79146103a657600080fd5b80632c52c7fd116102655780634706c3751161024a5780634706c375146103605780634b8a3529146103735780635c975abb1461038657600080fd5b80632c52c7fd14610344578063343caa1d1461034d57600080fd5b80630dd8fe6c14610297578063118e31b7146102bd57806321237f9c146102f65780632630c12f14610319575b600080fd5b6102aa6102a5366004614485565b6106be565b6040519081526020015b60405180910390f35b6102aa6102cb366004614485565b6001600160a01b039182166000908152600b6020908152604080832093909416825291909152205490565b6103096103043660046144b8565b610735565b60405190151581526020016102b4565b60095461032c906001600160a01b031681565b6040516001600160a01b0390911681526020016102b4565b6102aa60065481565b6102aa61035b366004614485565b610851565b61030961036e3660046144d3565b6108a6565b6103096103813660046144d3565b610c71565b6011546103099060ff1681565b6102aa6103a13660046144b8565b6111c0565b6102aa6103b43660046144b8565b6111d4565b600d546102aa565b6103d46103cf3660046144b8565b61121a565b604080519283526020830191909152016102b4565b6102aa6103f7366004614485565b601260209081526000928352604080842090915290825290205481565b6010546102aa9081565b61030961042c366004614485565b6112b7565b61049861043f3660046144b8565b600c6020526000908152604090208054600182015460028301546003840154600485015460058601546006870154600788015460089098015460ff9097169795966001600160a01b039095169593949293919290919089565b604080519915158a5260208a01989098526001600160a01b03909616968801969096526060870193909352608086019190915260a085015260c084015260e0830191909152610100820152610120016102b4565b6103d46104fa3660046144b8565b6113dd565b61030961050d3660046144d3565b6113fc565b600e546102aa9081565b6103d461052a366004614485565b600a6020908152600092835260408084209091529082529020805460019091015482565b600f546102aa9081565b6102aa610566366004614485565b6001600160a01b039182166000908152600a6020908152604080832093909416825291909152205490565b6102aa60055481565b61032c6105a83660046144fd565b611853565b6102aa60155481565b6103096105c4366004614485565b61187d565b6103096105d7366004614516565b611b10565b6103096105ea3660046144b8565b611d98565b6106026105fd3660046144b8565b611e60565b604051905181526020016102b4565b61030961061f366004614538565b611fa3565b6102aa610632366004614583565b6126a9565b6102aa60145481565b61030961064e3660046144d3565b6126db565b6103096106613660046144d3565b612b51565b60135461032c906001600160a01b031681565b60075461032c906001600160a01b031681565b6103d461069a366004614485565b600b6020908152600092835260408084209091529082529020805460019091015482565b6001600160a01b038082166000818152600c602090815260408083209487168352600b82528083209383529290529081206008830154600784015460018501549394859485949193919261071392914361303f565b935061072881600001548260010154866126a9565b9450505050505b92915050565b6007546000906001600160a01b031633146107975760405162461bcd60e51b815260206004820152600e60248201527f45787065637465642061646d696e00000000000000000000000000000000000060448201526064015b60405180910390fd5b6001600160a01b0382166108135760405162461bcd60e51b815260206004820152602560248201527f526577617264436f6e74726f6c20616464726573732063616e6e6f742062652060448201527f656d707479000000000000000000000000000000000000000000000000000000606482015260840161078e565b50601380547fffffffffffffffffffffffff0000000000000000000000000000000000000000166001600160a01b0392909216919091179055600190565b6001600160a01b038082166000818152600c602090815260408083209487168352600a82528083209383529290529081206005830154600484015460018501549394859485949193919261071392914361303f565b6007546000906001600160a01b031633146109295760405162461bcd60e51b815260206004820152602360248201527f4551554954595f5749544844524157414c5f4d4f44454c5f4f574e45525f434860448201527f45434b0000000000000000000000000000000000000000000000000000000000606482015260840161078e565b6001600160a01b03831661097f5760405162461bcd60e51b815260206004820152601b60248201527f41737365742063616e2774206265207a65726f20616464726573730000000000604482015260640161078e565b60008061098b8561121a565b915091506000828261099c886130b2565b6109a691906145de565b6109b091906145f6565b9050808510610a015760405162461bcd60e51b815260206004820152601b60248201527f4551554954595f494e53554646494349454e545f42414c414e43450000000000604482015260640161078e565b600754610a199087906001600160a01b031687613147565b6001600160a01b038087166000908152600c60205260409020600201541663517cf73e8787610a47826130b2565b610a5191906145f6565b6001600160a01b038a81166000908152600c60205260409081902060030154905160e086901b7fffffffff000000000000000000000000000000000000000000000000000000001681529390911660048401526024830191909152604482015260640160206040518083038186803b158015610acc57600080fd5b505afa158015610ae0573d6000803e3d6000fd5b505050506040513d601f19601f82011682018060405250810190610b04919061460d565b6001600160a01b038088166000908152600c6020526040902060048101929092556002909101541663ed2b5a3c8787610b3c826130b2565b610b4691906145f6565b6001600160a01b038a81166000908152600c60205260409081902060060154905160e086901b7fffffffff000000000000000000000000000000000000000000000000000000001681529390911660048401526024830191909152604482015260640160206040518083038186803b158015610bc157600080fd5b505afa158015610bd5573d6000803e3d6000fd5b505050506040513d601f19601f82011682018060405250810190610bf9919061460d565b6001600160a01b038781166000818152600c6020908152604091829020600790810195909555935481519283529382018590528101889052911660608201527fcb9f0cda23d6b563fc8e14d8fdada71d2ab7dadccc2e26dc353bf20ea8c5b8529060800160405180910390a150600195945050505050565b6000600160156000828254610c8691906145de565b909155505060155460115460ff1615610ce15760405162461bcd60e51b815260206004820152600f60248201527f436f6e7472616374207061757365640000000000000000000000000000000000604482015260640161078e565b610ceb8433613248565b610cf36141cf565b6001600160a01b0385166000818152600c60209081526040808320338452600b8352818420948452939091529020815460ff16610d725760405162461bcd60e51b815260206004820152601460248201527f4d41524b45545f4e4f545f535550504f52544544000000000000000000000000604482015260640161078e565b610d8a8260080154836007015484600101544361303f565b80845281546001830154610d9d926126a9565b6020840152610dab866132e8565b60408401819052600090610dc09088906145f6565b905083604001518460200151610dd691906145de565b60608501819052825460068501549091610def916145de565b610df991906145f6565b6080850152610e073361334e565b61018086018190526101608601919091525115610e665760405162461bcd60e51b815260206004820181905260248201527f424f52524f575f4143434f554e545f53484f525446414c4c5f50524553454e54604482015260640161078e565b610e74888560400151613431565b6101a08501819052610160850151905190511015610efa5760405162461bcd60e51b815260206004820152602160248201527f424f52524f575f414d4f554e545f4c49515549444954595f53484f525446414c60448201527f4c00000000000000000000000000000000000000000000000000000000000000606482015260840161078e565b610f03886130b2565b60a08501819052610f159088906145f6565b60c0850152600583015460048401546001850154610f359291904361303f565b60e0850152600283015460c085015160808601516040517f517cf73e0000000000000000000000000000000000000000000000000000000081526001600160a01b038c811660048301526024820193909352604481019190915291169063517cf73e9060640160206040518083038186803b158015610fb357600080fd5b505afa158015610fc7573d6000803e3d6000fd5b505050506040513d601f19601f82011682018060405250810190610feb919061460d565b610100850152600283015460c085015160808601516040517fed2b5a3c0000000000000000000000000000000000000000000000000000000081526001600160a01b038c811660048301526024820193909352604481019190915291169063ed2b5a3c9060640160206040518083038186803b15801561106a57600080fd5b505afa15801561107e573d6000803e3d6000fd5b505050506040513d601f19601f820116820180604052508101906110a2919061460d565b61012085018190524360018086019190915560808601516006860155610100860151600486015560e086015160058601556007850191909155845160088501819055835461014087015260608601518455908301553360009081526012602090815260408083206001600160a01b038c1684529091528120805483929061112a9084906145de565b9091555061113b9050883389613147565b610140840151604080860151845482513381526001600160a01b038d1660208201528084018c90526060810194909452608084019190915260a0830152517f6b69190ebbb96f162b04dc222ef96416f9dca9a415b6dd183c79424501113e189181900360c00190a1600195505050505060155481146111b957600080fd5b5092915050565b6000806111cc83611e60565b519392505050565b60008060006111e28461334e565b915091506111ef82511590565b15611211576111fd816134ee565b61120990600019614626565b949350505050565b611209826134ee565b6000806000806000806000600c6000896001600160a01b03166001600160a01b0316815260200190815260200160002090506112648160050154826004015483600101544361303f565b945061127981600301548260050154876126a9565b93506112938160080154826007015483600101544361303f565b92506112a881600601548260080154856126a9565b93989397509295505050505050565b6007546000906001600160a01b0316331461133a5760405162461bcd60e51b815260206004820152602a60248201527f5345545f4d41524b45545f494e5445524553545f524154455f4d4f44454c5f4f60448201527f574e45525f434845434b00000000000000000000000000000000000000000000606482015260840161078e565b6001600160a01b0382166113905760405162461bcd60e51b815260206004820152601860248201527f52617465204d6f64656c2063616e6e6f74206265203078300000000000000000604482015260640161078e565b506001600160a01b039182166000908152600c6020526040902060020180547fffffffffffffffffffffffff00000000000000000000000000000000000000001691909216179055600190565b6000806000806113ec85613506565b9051905190969095509350505050565b600060016015600082825461141191906145de565b909155505060155460115460ff161561146c5760405162461bcd60e51b815260206004820152600f60248201527f436f6e7472616374207061757365640000000000000000000000000000000000604482015260640161078e565b6114768433613248565b6114d360405180610160016040528060008152602001600081526020016000815260200160008152602001600081526020016000815260200160008152602001600081526020016000815260200160008152602001600081525090565b6001600160a01b0385166000818152600c60209081526040808320338452600b835281842094845293909152902060088201546007830154600184015461151c9291904361303f565b8084528154600183015461152f926126a9565b602084015260005486141561155f5761155561154b88336136d3565b846020015161376a565b6040840152611567565b604083018690525b8260400151836020015161157b91906145f6565b606084015260408301516115929088903390613781565b8054606084015160068401546115a891906145de565b6115b291906145f6565b60808401526115c0876130b2565b60a0840181905260408401516115d5916145de565b60c08401526005820154600483015460018401546115f59291904361303f565b60e0840152600282015460c084015160808501516040517f517cf73e0000000000000000000000000000000000000000000000000000000081526001600160a01b038b811660048301526024820193909352604481019190915291169063517cf73e9060640160206040518083038186803b15801561167357600080fd5b505afa158015611687573d6000803e3d6000fd5b505050506040513d601f19601f820116820180604052508101906116ab919061460d565b610100840152600282015460c084015160808501516040517fed2b5a3c0000000000000000000000000000000000000000000000000000000081526001600160a01b038b811660048301526024820193909352604481019190915291169063ed2b5a3c9060640160206040518083038186803b15801561172a57600080fd5b505afa15801561173e573d6000803e3d6000fd5b505050506040513d601f19601f82011682018060405250810190611762919061460d565b61012084018190524360018085019190915560808501516006850155610100850151600485015560e0850151600585015560078401919091558351600884018190558254610140860152606085015183559082015560408301516117c99088903390613952565b6117dd873385604001518560050154613a52565b604080840151610140850151835483513381526001600160a01b038c16602082015293840192909252606083015260808201527f550e7e464126359c6adc43831f011682856b177df6c49c0af6675dd2a063649d9060a0015b60405180910390a16001945050505060155481146111b957600080fd5b600d818154811061186357600080fd5b6000918252602090912001546001600160a01b0316905081565b6007546000906001600160a01b031633146118da5760405162461bcd60e51b815260206004820152600a60248201527f4f6e6c792061646d696e00000000000000000000000000000000000000000000604482015260640161078e565b6001600160a01b0382166119305760405162461bcd60e51b815260206004820152601860248201527f52617465204d6f64656c2063616e6e6f74206265203078300000000000000000604482015260640161078e565b600d546010116119a85760405162461bcd60e51b815260206004820152602b60248201527f457863656564696e6720746865206d6178206e756d626572206f66206d61726b60448201527f65747320616c6c6f776564000000000000000000000000000000000000000000606482015260840161078e565b60006119b384611e60565b90506119be81511590565b15611a0b5760405162461bcd60e51b815260206004820152601560248201527f4e6f74206120737570706f727465642061737365740000000000000000000000604482015260640161078e565b6001600160a01b038481166000908152600c6020526040902060020180547fffffffffffffffffffffffff000000000000000000000000000000000000000016918516919091179055611a5d84613c88565b6001600160a01b0384166000908152600c6020526040902080547fffffffffffffffffffffffffffffffffffffffffffffffffffffffffffffff0016600117815560050154611ac6576001546001600160a01b0385166000908152600c60205260409020600501555b6001600160a01b0384166000908152600c6020526040902060080154611b06576001546001600160a01b0385166000908152600c60205260409020600801555b5060019392505050565b6007546000906001600160a01b03163314611b6d5760405162461bcd60e51b815260206004820152601f60248201527f5345545f5249534b5f504152414d45544552535f4f574e45525f434845434b00604482015260640161078e565b6005548310158015611b8157506006548211155b611c195760405162461bcd60e51b815260206004820152605960248201527f4c69717569646174696f6e20646973636f756e74206973206d6f72652074686160448201527f6e206d617820646973636f756e74206f7220636f6c6c61746572616c2072617460648201527f696f206973206c657373207468616e206d696e20726174696f00000000000000608482015260a40161078e565b60408051602080820183528582528251808201845285815283518083018552600554815284519283019094526006548252919290611c5984835190511090565b15611ca65760405162461bcd60e51b815260206004820152601860248201527f494e56414c49445f434f4c4c41544552414c5f524154494f0000000000000000604482015260640161078e565b825181511015611cf85760405162461bcd60e51b815260206004820152601c60248201527f494e56414c49445f4c49515549444154494f4e5f444953434f554e5400000000604482015260640161078e565b604080516020810190915260008152611d27846040518060200160405280670de0b6b3a7640000815250613d4e565b9050611d368582519051111590565b15611d835760405162461bcd60e51b815260206004820181905260248201527f494e56414c49445f434f4d42494e45445f5249534b5f504152414d4554455253604482015260640161078e565b50509151600e55516010555060019392505050565b6007546000906001600160a01b03163314611df55760405162461bcd60e51b815260206004820152601a60248201527f53555350454e445f4d41524b45545f4f574e45525f434845434b000000000000604482015260640161078e565b6001600160a01b0382166000908152600c602052604090205460ff16611e1d57506001919050565b506001600160a01b03166000908152600c6020526040902080547fffffffffffffffffffffffffffffffffffffffffffffffffffffffffffffff00169055600190565b6040805160208101909152600081526009546001600160a01b0316611ec75760405162461bcd60e51b815260206004820152600e60248201527f4f7261636c65206973205a65726f000000000000000000000000000000000000604482015260640161078e565b6009546040517fb3596f070000000000000000000000000000000000000000000000000000000081526001600160a01b038481166004830152600092839291169063b3596f0790602401604080518083038186803b158015611f2857600080fd5b505afa158015611f3c573d6000803e3d6000fd5b505050506040513d601f19601f82011682018060405250810190611f6091906146e2565b90925090506000611f7560ff831660126145f6565b9050611f8281600a6147fc565b611f8c9084614808565b604080516020810190915290815295945050505050565b60115460009060ff1615611ff95760405162461bcd60e51b815260206004820152600f60248201527f436f6e7472616374207061757365640000000000000000000000000000000000604482015260640161078e565b6120038386613d83565b61200d8333613d83565b6120178486613248565b61201f614279565b6001600160a01b038087168083528682166020808501829052336040808701918252898616606088018190526000858152600c8552828120828252838220888352600b8752848320978352968652838220978252600a80875284832084845287528483209551909916825297855282812091815293529091209192916120a489611e60565b6103808701526120b38a611e60565b866103a001819052506120d48560080154866007015487600101544361303f565b60808701819052835460018501546120eb926126a9565b61010087015260058401546004850154600186015461210c9291904361303f565b60e0870181905282546001840154612123926126a9565b6101c08701528054600182015460e08801516121409291906126a9565b61020087015281546101c0870151600386015461215d91906145de565b61216791906145f6565b61024087018190528154610200880151909161218391906145de565b61218d91906145f6565b6102408701526103a08601516103808701516101c08801516121b0929190613df1565b610300870152845460ff161561220f576121d08b876103a001518c613e9d565b6102e08701526101008601516103008701516121ec919061376a565b61032087018190526102e0870151612204919061376a565b61032087015261222a565b61222386610100015187610300015161376a565b6103208701525b6000548814156122455761032086015161034087015261224e565b61034086018890525b856103200151866103400151106122a75760405162461bcd60e51b815260206004820152601f60248201527f4c49515549444154455f434c4f53455f414d4f554e545f544f4f5f4849474800604482015260640161078e565b6122c1866103a00151876103800151886103400151613fa9565b61036087015260408601516103408701516122dd918c91613781565b8561034001518661010001516122f391906145f6565b610120870181905283546006870154909161230d916145de565b61231791906145f6565b6101408701526123268a6130b2565b610260870181905261034087015161233d916145de565b61028087015260058501546004860154600187015461235e9291904361303f565b60a087015260028501546102808701516101408801516040517f517cf73e0000000000000000000000000000000000000000000000000000000081526001600160a01b038e811660048301526024820193909352604481019190915291169063517cf73e9060640160206040518083038186803b1580156123de57600080fd5b505afa1580156123f2573d6000803e3d6000fd5b505050506040513d601f19601f82011682018060405250810190612416919061460d565b6102a087015260028501546102808701516101408801516040517fed2b5a3c0000000000000000000000000000000000000000000000000000000081526001600160a01b038e811660048301526024820193909352604481019190915291169063ed2b5a3c9060640160206040518083038186803b15801561249757600080fd5b505afa1580156124ab573d6000803e3d6000fd5b505050506040513d601f19601f820116820180604052508101906124cf919061460d565b6102c08701526008840154600785015460018601546124f09291904361303f565b60c08701526103608601516101c087015161250b91906145f6565b6101e087015261036086015161020087015161252791906145de565b610220870181905243600180880182905561014089015160068901556102a0890151600489015560a08901516005808a01919091556102c08a015160078a015560808a01516008808b01829055898401949094556102408b015160038a015560e08b015191890182905560c08b01519389019390935586546101608b01526101208a015187558682019290925584546101808a01526101e0890151855584810182905583546101a08a01529183559082015560408601516103408701516125ef918c91613952565b6126088a87604001518861034001518960a00151613a52565b85516020808801516101008901516103408a01516040808c01516060808e01516103608f015184516001600160a01b039a8b168152978a1698880198909852928601949094529284019190915290841660808301529290921660a083015260c08201527fea875c193740bd26dcfcd2e8dc9ac63cc31ee98ac4c001575746d75c30bab5b39060e00160405180910390a15060019a9950505050505050505050565b6000836126b8575060006126d4565b60006126c48386614808565b90506126d08482614827565b9150505b9392505050565b60006001601560008282546126f091906145de565b909155505060155460115460ff161561274b5760405162461bcd60e51b815260206004820152600f60248201527f436f6e7472616374207061757365640000000000000000000000000000000000604482015260640161078e565b6001600160a01b0384166127a15760405162461bcd60e51b815260206004820152601b60248201527f41737365742063616e2774206265207a65726f20616464726573730000000000604482015260640161078e565b6127ab8433613d83565b6001600160a01b0384166000908152600c60205260409020805460ff166128145760405162461bcd60e51b815260206004820152601460248201527f4d41524b45545f4e4f545f535550504f52544544000000000000000000000000604482015260640161078e565b336000908152600a602090815260408083206001600160a01b03891684528252808320815161014081018352848152928301849052908201839052606082018390526080820183905260a0820183905260c0820183905260e08201839052610100820183905261012082019290925261288e873388613781565b6128a68360050154846004015485600101544361303f565b60208201819052825460018401546128bd926126a9565b604082018190526128cf9087906145de565b606082018190528254600385015490916128e8916145de565b6128f291906145f6565b6080820152612900876130b2565b60a082018190526129129087906145de565b60c08201819052600284015460068501546040517f517cf73e0000000000000000000000000000000000000000000000000000000081526001600160a01b038b811660048301526024820194909452604481019190915291169063517cf73e9060640160206040518083038186803b15801561298d57600080fd5b505afa1580156129a1573d6000803e3d6000fd5b505050506040513d601f19601f820116820180604052508101906129c5919061460d565b60e08201526008830154600784015460018501546129e59291904361303f565b610100820152600283015460c082015160068501546040517fed2b5a3c0000000000000000000000000000000000000000000000000000000081526001600160a01b038b811660048301526024820193909352604481019190915291169063ed2b5a3c9060640160206040518083038186803b158015612a6457600080fd5b505afa158015612a78573d6000803e3d6000fd5b505050506040513d601f19601f82011682018060405250810190612a9c919061460d565b6101208201819052436001808601919091556080830151600386015560e08301516004860155602083015160058601819055600786019290925561010083015160088601558354835260608301518455830155612afa873388613952565b80518254604080513381526001600160a01b038b166020820152908101899052606081019290925260808201527f4ea5606ff36959d6c1a24f693661d800a98dd80c0fb8469a665d2ec7e8313c219060a001611836565b6000600160156000828254612b6691906145de565b909155505060155460115460ff1615612bc15760405162461bcd60e51b815260206004820152600f60248201527f436f6e7472616374207061757365640000000000000000000000000000000000604482015260640161078e565b612bcb8433613d83565b6001600160a01b0384166000818152600c60209081526040808320338452600a8352818420948452939091529020612c01614383565b612c0a3361334e565b6101a0830152610180820152600583015460048401546001850154612c319291904361303f565b6040820181905282546001840154612c48926126a9565b6060820152600054861415612c8457612c668782610180015161403e565b61016082018190526060820151612c7d919061376a565b8152612c88565b8581525b612c91876130b2565b60c082018190528151612ca3916145f6565b60e082015280516060820151612cb991906145f6565b60808201526101a08101515115612d385760405162461bcd60e51b815260206004820152602260248201527f57495448445241575f4143434f554e545f53484f525446414c4c5f505245534560448201527f4e54000000000000000000000000000000000000000000000000000000000000606482015260840161078e565b612d46878260000151614063565b6101c08201819052610180820151905190511015612dcc5760405162461bcd60e51b815260206004820152602360248201527f57495448445241575f414d4f554e545f4c49515549444954595f53484f52544660448201527f414c4c0000000000000000000000000000000000000000000000000000000000606482015260840161078e565b815460808201516003850154612de291906145de565b612dec91906145f6565b60a0820152600283015460e082015160068501546040517f517cf73e0000000000000000000000000000000000000000000000000000000081526001600160a01b038b811660048301526024820193909352604481019190915291169063517cf73e9060640160206040518083038186803b158015612e6a57600080fd5b505afa158015612e7e573d6000803e3d6000fd5b505050506040513d601f19601f82011682018060405250810190612ea2919061460d565b610100820152600883015460078401546001850154612ec39291904361303f565b610120820152600283015460e082015160068501546040517fed2b5a3c0000000000000000000000000000000000000000000000000000000081526001600160a01b038b811660048301526024820193909352604481019190915291169063ed2b5a3c9060640160206040518083038186803b158015612f4257600080fd5b505afa158015612f56573d6000803e3d6000fd5b505050506040513d601f19601f82011682018060405250810190612f7a919061460d565b61014082018190524360018086019190915560a0830151600386015561010083015160048601556040830151600586018190556007860192909255610120830151600886015583546020840152608083015184558301558051612fe09088903390613147565b80516020808301518454604080513381526001600160a01b038d1694810194909452830193909352606082015260808101919091527f56559a17e3aa8ea4b05036eaf31aeaf9fb71fc1b8865b6389647639940bed0309060a001611836565b60008061304c84846145f6565b90506000613068604051806020016040528088815250836140db565b9050600061308c826040518060200160405280670de0b6b3a7640000815250613d4e565b9050600061309a828a6140db565b90506130a5816134ee565b9998505050505050505050565b6040517f70a0823100000000000000000000000000000000000000000000000000000000815230600482015260009082906001600160a01b038216906370a082319060240160206040518083038186803b15801561310f57600080fd5b505afa158015613123573d6000803e3d6000fd5b505050506040513d601f19601f820116820180604052508101906126d4919061460d565b6040517fa9059cbb0000000000000000000000000000000000000000000000000000000081526001600160a01b03838116600483015260248201839052849160009183169063a9059cbb90604401600060405180830381600087803b1580156131af57600080fd5b505af11580156131c3573d6000803e3d6000fd5b505050503d600081146131dd57602081146131e757600080fd5b60001991506131f3565b60206000803e60005191505b50806132415760405162461bcd60e51b815260206004820152601960248201527f544f4b454e5f5452414e534645525f4f55545f4641494c454400000000000000604482015260640161078e565b5050505050565b6013546001600160a01b031661325c575050565b6013546040517fdb57d0c70000000000000000000000000000000000000000000000000000000081526001600160a01b0384811660048301528381166024830152600060448301529091169063db57d0c7906064015b600060405180830381600087803b1580156132cc57600080fd5b505af11580156132e0573d6000803e3d6000fd5b505050505050565b6040805160208101909152600f5490819052600090613305575090565b6040805160208082018352600f5482528251908101909252670de0b6b3a764000082526000916133359190613d4e565b9050600061334382856140db565b9050611209816134ee565b60408051602081019091526000815260408051602081019091526000815260008061337885613506565b915091506133926040518060200160405280600081525090565b604080516020808201835285518252825180820184526000815283518083018552600e54815284519283019094528551825291926133cf916140f8565b90506133dd82825190511090565b15613409576133ec8183614167565b604080516020810190915260008152999098509650505050505050565b6134138282614167565b60408051602081019091526000815290999098509650505050505050565b60408051602081019091526000815260408051602081019091526000815260408051602081019091526000815261346785611e60565b915061347282511590565b156134bf5760405162461bcd60e51b815260206004820152601360248201527f4d495353494e475f41535345545f505249434500000000000000000000000000604482015260640161078e565b6040805160208101909152600e5481526134d990836140f8565b90506134e581856140db565b95945050505050565b805160009061072f90670de0b6b3a764000090614827565b60408051602081019091526000815260408051602081019091526000815261352c6143f9565b6040805160208082018352600080835260e08501929092528251808201909352818352610120840192909252600d54918301919091525b81602001518110156136bd57600d818154811061358257613582614862565b60009182526020808320909101546001600160a01b039081168086528352600c82526040808420898316808652600a85528286208851851687528552828620908652600b85528286208851909416865292909352909220825491929115613640576135fb8360050154846004015485600101544361303f565b6040860181905282546001840154613612926126a9565b60608601819052855161362491614063565b60c0860181905260e086015161363a9190613d4e565b60e08601525b8054156136a75761365f8360080154846007015485600101544361303f565b6080860181905281546001830154613676926126a9565b60a08601819052855161368891614063565b61010086018190526101208601516136a09190613d4e565b6101208601525b50505080806136b590614891565b915050613563565b508060e001518161012001519250925050915091565b6040517f70a082310000000000000000000000000000000000000000000000000000000081526001600160a01b03828116600483015260009184918216906370a082319060240160206040518083038186803b15801561373257600080fd5b505afa158015613746573d6000803e3d6000fd5b505050506040513d601f19601f82011682018060405250810190611209919061460d565b60008183101561377b57508161072f565b50919050565b6040517fdd62ed3e0000000000000000000000000000000000000000000000000000000081526001600160a01b0383811660048301523060248301528491839183169063dd62ed3e9060440160206040518083038186803b1580156137e557600080fd5b505afa1580156137f9573d6000803e3d6000fd5b505050506040513d601f19601f8201168201806040525081019061381d919061460d565b1161386a5760405162461bcd60e51b815260206004820152601c60248201527f544f4b454e5f494e53554646494349454e545f414c4c4f57414e434500000000604482015260640161078e565b6040517f70a082310000000000000000000000000000000000000000000000000000000081526001600160a01b0384811660048301528391908316906370a082319060240160206040518083038186803b1580156138c757600080fd5b505afa1580156138db573d6000803e3d6000fd5b505050506040513d601f19601f820116820180604052508101906138ff919061460d565b1161394c5760405162461bcd60e51b815260206004820152601a60248201527f544f4b454e5f494e53554646494349454e545f42414c414e4345000000000000604482015260640161078e565b50505050565b6040517f23b872dd0000000000000000000000000000000000000000000000000000000081526001600160a01b0383811660048301523060248301526044820183905284916000918316906323b872dd90606401600060405180830381600087803b1580156139c057600080fd5b505af11580156139d4573d6000803e3d6000fd5b505050503d600081146139ee57602081146139f857600080fd5b6000199150613a04565b60206000803e60005191505b50806132415760405162461bcd60e51b815260206004820152601560248201527f544f4b454e5f5452414e534645525f4641494c45440000000000000000000000604482015260640161078e565b600754613a699085906001600160a01b0316613d83565b6001600160a01b03808416600090815260126020908152604080832093881683529290529081205415613241576001600160a01b03808516600090815260126020908152604080832093891683529290522054831015613aca575081613af2565b506001600160a01b038084166000908152601260209081526040808320938816835292905220545b6007546001600160a01b039081166000908152600a60209081526040808320898516808552908352818420825161014081018452858152808501869052808401869052606081018690526080810186905260a0810186905260c0810186905260e0810186905261010081018690526101208101869052958a168552601284528285209185529252822080549193928592613b8d9084906145f6565b909155505081546001830154613ba49190866126a9565b60408201819052613bb69084906145de565b6060820181905282546001600160a01b0389166000908152600c60205260409020600301549091613be6916145de565b613bf091906145f6565b60808281018290526001600160a01b038981166000818152600c6020908152604091829020600301959095558654808752606080880151808a5560018a018c90556007548451961686529685019390935290830188905290820152908101919091527fa4317c2dd8ca95b5d74e51fdd145f7beb968acdba1579f140fdf7113789f16819060a00160405180910390a150505050505050565b60005b600d54811015613ce357816001600160a01b0316600d8281548110613cb257613cb2614862565b6000918252602090912001546001600160a01b03161415613cd1575050565b80613cdb81614891565b915050613c8b565b50600d80546001810182556000919091527fd7b6990105719101dabeb77144f2a3385c8033acd3af97e9423a695e81ad1eb50180547fffffffffffffffffffffffff0000000000000000000000000000000000000000166001600160a01b0392909216919091179055565b60408051602081019091526000815281518351600091613d6d916145de565b6040805160208101909152908152949350505050565b6013546001600160a01b0316613d97575050565b6013546040517fd511e0890000000000000000000000000000000000000000000000000000000081526001600160a01b0384811660048301528381166024830152600060448301529091169063d511e089906064016132b2565b6000613e096040518060200160405280600081525090565b6040805160208101909152600081526040805160208101909152600081526040805160208101909152600081526040805160208082018352670de0b6b3a7640000825282519081019092526010548252613e6291613d4e565b9350613e6e87876140db565b9250613e7a84896140f8565b9150613e868383614186565b9050613e91816134ee565b98975050505050505050565b6000613eb56040518060200160405280600081525090565b60408051602080820183526000808352835180830185528181528451808401865282815285518085018752838152865194850190965291835292939091613efb8a61334e565b6040805160208082018352600e54825282519081019092526010548252929850909650613f289190614167565b9350613f4a846040518060200160405280670de0b6b3a7640000815250614167565b9250613f5689846140f8565b91506000613f648b8a6106be565b90506000613f826040518060200160405280601454815250836140db565b9050613f8e8185614186565b9250613f99836134ee565b9c9b505050505050505050505050565b6000613fc16040518060200160405280600081525090565b6040805160208101909152600081526040805160208101909152600081526040805160208101909152600081526040805160208082018352670de0b6b3a764000082528251908101909252601054825261401a91613d4e565b935061402688856140f8565b925061403283876140db565b9150613e868288614186565b60008061404a84611e60565b905060006140588483614186565b90506134e5816134ee565b604080516020810190915260008152600061407d84611e60565b905061408881511590565b156140d55760405162461bcd60e51b815260206004820152601360248201527f4d495353494e475f41535345545f505249434500000000000000000000000000604482015260640161078e565b61120981845b604080516020810190915260008082528351613d6d908490614808565b6040805160208101909152600081528151835160009161411791614808565b905060008161412f6002670de0b6b3a7640000614827565b61413991906145de565b9050600061414f670de0b6b3a764000083614827565b60408051602081019091529081529695505050505050565b60408051602081019091526000815281518351600091613d6d916145f6565b604080516020810190915260008152825182516126d4919060408051602081019091526000815260006141c1670de0b6b3a764000085614808565b90506000611f8c8483614827565b604051806101c00160405280600081526020016000815260200160008152602001600081526020016000815260200160008152602001600081526020016000815260200160008152602001600081526020016000815260200161423e6040518060200160405280600081525090565b81526020016142596040518060200160405280600081525090565b81526020016142746040518060200160405280600081525090565b905290565b604051806103c0016040528060006001600160a01b0316815260200160006001600160a01b0316815260200160006001600160a01b0316815260200160006001600160a01b031681526020016000815260200160008152602001600081526020016000815260200160008152602001600081526020016000815260200160008152602001600081526020016000815260200160008152602001600081526020016000815260200160008152602001600081526020016000815260200160008152602001600081526020016000815260200160008152602001600081526020016000815260200160008152602001600081526020016142596040518060200160405280600081525090565b604051806101e0016040528060008152602001600081526020016000815260200160008152602001600081526020016000815260200160008152602001600081526020016000815260200160008152602001600081526020016000815260200161423e6040518060200160405280600081525090565b60405180610140016040528060006001600160a01b03168152602001600081526020016000815260200160008152602001600081526020016000815260200161444e6040518060200160405280600081525090565b815260200161423e6040518060200160405280600081525090565b80356001600160a01b038116811461448057600080fd5b919050565b6000806040838503121561449857600080fd5b6144a183614469565b91506144af60208401614469565b90509250929050565b6000602082840312156144ca57600080fd5b6126d482614469565b600080604083850312156144e657600080fd5b6144ef83614469565b946020939093013593505050565b60006020828403121561450f57600080fd5b5035919050565b6000806040838503121561452957600080fd5b50508035926020909101359150565b6000806000806080858703121561454e57600080fd5b61455785614469565b935061456560208601614469565b925061457360408601614469565b9396929550929360600135925050565b60008060006060848603121561459857600080fd5b505081359360208301359350604090920135919050565b7f4e487b7100000000000000000000000000000000000000000000000000000000600052601160045260246000fd5b600082198211156145f1576145f16145af565b500190565b600082821015614608576146086145af565b500390565b60006020828403121561461f57600080fd5b5051919050565b60007f7fffffffffffffffffffffffffffffffffffffffffffffffffffffffffffffff600084136000841385830485118282161615614667576146676145af565b7f800000000000000000000000000000000000000000000000000000000000000060008712868205881281841616156146a2576146a26145af565b600087129250878205871284841616156146be576146be6145af565b878505871281841616156146d4576146d46145af565b505050929093029392505050565b600080604083850312156146f557600080fd5b82519150602083015160ff8116811461470d57600080fd5b809150509250929050565b600181815b80851115614753578160001904821115614739576147396145af565b8085161561474657918102915b93841c939080029061471d565b509250929050565b60008261476a5750600161072f565b816147775750600061072f565b816001811461478d5760028114614797576147b3565b600191505061072f565b60ff8411156147a8576147a86145af565b50506001821b61072f565b5060208310610133831016604e8410600b84101617156147d6575081810a61072f565b6147e08383614718565b80600019048211156147f4576147f46145af565b029392505050565b60006126d4838361475b565b6000816000190483118215151615614822576148226145af565b500290565b60008261485d577f4e487b7100000000000000000000000000000000000000000000000000000000600052601260045260246000fd5b500490565b7f4e487b7100000000000000000000000000000000000000000000000000000000600052603260045260246000fd5b60006000198214156148a5576148a56145af565b506001019056fea264697066735822122070aaf18266ada248c3459dae21bbdcd1b8277a16db5f3b77710443c136703df164736f6c63430008090033",
  "linkReferences": {},
  "deployedLinkReferences": {}
}