{
  "_format": "hh-sol-artifact-1",
  "contractName": "DeltaInsurance",
  "sourceName": "contracts/insurance/DeltaInsurance.sol",
  "abi": [
    {
      "inputs": [
        {
          "internalType": "address",
          "name": "aaveV2LendingPool_",
          "type": "address"
        },
        {
          "internalType": "address",
          "name": "aaveADai_",
          "type": "address"
        },
        {
          "internalType": "address",
          "name": "compoundCDai_",
          "type": "address"
        }
      ],
      "stateMutability": "nonpayable",
      "type": "constructor"
    },
    {
      "anonymous": false,
      "inputs": [
        {
          "indexed": true,
          "internalType": "address",
          "name": "claimant",
          "type": "address"
        },
        {
          "indexed": false,
          "internalType": "uint256",
          "name": "amount_A",
          "type": "uint256"
        },
        {
          "indexed": false,
          "internalType": "uint256",
          "name": "amount_B",
          "type": "uint256"
        },
        {
          "indexed": false,
          "internalType": "uint256",
          "name": "amount_c",
          "type": "uint256"
        },
        {
          "indexed": false,
          "internalType": "uint256",
          "name": "amount_cx",
          "type": "uint256"
        },
        {
          "indexed": false,
          "internalType": "uint256",
          "name": "amount_cy",
          "type": "uint256"
        }
      ],
      "name": "Claim",
      "type": "event"
    },
    {
      "anonymous": false,
      "inputs": [
        {
          "indexed": false,
          "internalType": "uint256",
          "name": "amount_c",
          "type": "uint256"
        },
        {
          "indexed": false,
          "internalType": "uint256",
          "name": "amount_cx",
          "type": "uint256"
        },
        {
          "indexed": false,
          "internalType": "uint256",
          "name": "amount_cy",
          "type": "uint256"
        },
        {
          "indexed": false,
          "internalType": "uint256",
          "name": "amount_c_incentive",
          "type": "uint256"
        }
      ],
      "name": "Divest",
      "type": "event"
    },
    {
      "anonymous": false,
      "inputs": [
        {
          "indexed": false,
          "internalType": "uint256",
          "name": "amount_c",
          "type": "uint256"
        },
        {
          "indexed": false,
          "internalType": "uint256",
          "name": "amount_cx",
          "type": "uint256"
        },
        {
          "indexed": false,
          "internalType": "uint256",
          "name": "amount_cy",
          "type": "uint256"
        },
        {
          "indexed": false,
          "internalType": "uint256",
          "name": "amount_c_incentive",
          "type": "uint256"
        }
      ],
      "name": "Invest",
      "type": "event"
    },
    {
      "anonymous": false,
      "inputs": [
        {
          "indexed": true,
          "internalType": "address",
          "name": "splitter",
          "type": "address"
        },
        {
          "indexed": false,
          "internalType": "uint256",
          "name": "amount_c",
          "type": "uint256"
        }
      ],
      "name": "RiskSplit",
      "type": "event"
    },
    {
      "inputs": [
        {
          "internalType": "address",
          "name": "asset",
          "type": "address"
        },
        {
          "internalType": "uint256",
          "name": "amount_A",
          "type": "uint256"
        },
        {
          "internalType": "uint256",
          "name": "amount_B",
          "type": "uint256"
        }
      ],
      "name": "claim",
      "outputs": [],
      "stateMutability": "nonpayable",
      "type": "function"
    },
    {
      "inputs": [
        {
          "internalType": "address",
          "name": "asset",
          "type": "address"
        },
        {
          "internalType": "uint256",
          "name": "tranches_to_cx",
          "type": "uint256"
        },
        {
          "internalType": "uint256",
          "name": "tranches_to_cy",
          "type": "uint256"
        }
      ],
      "name": "claimA",
      "outputs": [],
      "stateMutability": "nonpayable",
      "type": "function"
    },
    {
      "inputs": [
        {
          "internalType": "address",
          "name": "asset",
          "type": "address"
        }
      ],
      "name": "claimAll",
      "outputs": [],
      "stateMutability": "nonpayable",
      "type": "function"
    },
    {
      "inputs": [
        {
          "internalType": "address",
          "name": "asset",
          "type": "address"
        },
        {
          "internalType": "uint256",
          "name": "tranches_to_cx",
          "type": "uint256"
        },
        {
          "internalType": "uint256",
          "name": "tranches_to_cy",
          "type": "uint256"
        }
      ],
      "name": "claimB",
      "outputs": [],
      "stateMutability": "nonpayable",
      "type": "function"
    },
    {
      "inputs": [
        {
          "internalType": "address",
          "name": "asset",
          "type": "address"
        }
      ],
      "name": "divest",
      "outputs": [],
      "stateMutability": "nonpayable",
      "type": "function"
    },
    {
      "inputs": [
        {
          "internalType": "address",
          "name": "sender",
          "type": "address"
        }
      ],
      "name": "getInsuranceBalances",
      "outputs": [
        {
          "internalType": "uint256",
          "name": "",
          "type": "uint256"
        },
        {
          "internalType": "uint256",
          "name": "",
          "type": "uint256"
        }
      ],
      "stateMutability": "view",
      "type": "function"
    },
    {
      "inputs": [
        {
          "internalType": "address",
          "name": "asset",
          "type": "address"
        }
      ],
      "name": "invest",
      "outputs": [],
      "stateMutability": "nonpayable",
      "type": "function"
    },
    {
      "inputs": [
        {
          "internalType": "address",
          "name": "asset",
          "type": "address"
        },
        {
          "internalType": "uint256",
          "name": "amount",
          "type": "uint256"
        }
      ],
      "name": "splitRisk",
      "outputs": [],
      "stateMutability": "nonpayable",
      "type": "function"
    }
  ],
  "bytecode": "0x6101006040523480156200001257600080fd5b5060405162002a3238038062002a328339810160408190526200003591620001e9565b6040516200004390620001be565b6040808252600990820152685472616e636865204160b81b6060820152608060208201819052600190820152604160f81b60a082015260c001604051809103906000f08015801562000099573d6000803e3d6000fd5b50600080546001600160a01b0319166001600160a01b0392909216919091179055604051620000c890620001be565b6040808252600990820152682a3930b731b432902160b91b6060820152608060208201819052600190820152602160f91b60a082015260c001604051809103906000f0801580156200011e573d6000803e3d6000fd5b50600180546001600160a01b03199081166001600160a01b039384161790915560028054821686841617905560038054821685841617905560048054909116918316919091179055620001754262093a8062000233565b608081905262000189906224ea0062000233565b60a08190526200019d906201518062000233565b60c0819052620001b1906203f48062000233565b60e052506200025a915050565b61123380620017ff83390190565b80516001600160a01b0381168114620001e457600080fd5b919050565b600080600060608486031215620001ff57600080fd5b6200020a84620001cc565b92506200021a60208501620001cc565b91506200022a60408501620001cc565b90509250925092565b600082198211156200025557634e487b7160e01b600052601160045260246000fd5b500190565b60805160a05160c05160e05161157762000288600039600050506000505060005050600050506115776000f3fe608060405234801561001057600080fd5b50600436106100885760003560e01c8063746a36181161005b578063746a3618146100c657806377329f351461008d578063869cdd08146100d9578063947d71f41461010557600080fd5b806303f9c7931461008d57806311af3c681461008d5780632bc43fd9146100a057806335294e5b146100b3575b600080fd5b61009e61009b366004611395565b50565b005b61009e6100ae3660046113b7565b610118565b61009e6100c13660046113b7565b6106a3565b61009e6100d43660046113b7565b61071d565b6100ec6100e7366004611395565b61078d565b6040805192835260208301919091520160405180910390f35b61009e6101133660046113ea565b6108dd565b60008211806101275750600081115b6101b8576040517f08c379a000000000000000000000000000000000000000000000000000000000815260206004820152603b60248201527f5b496e737572616e63655d3a20616d6f756e745f41206f7220616d6f756e745f60448201527f42206d7573742062652067726561746572207468616e207a65726f000000000060648201526084015b60405180910390fd5b600082156103ac576000546040517f70a0823100000000000000000000000000000000000000000000000000000000815233600482015273ffffffffffffffffffffffffffffffffffffffff90911690849082906370a082319060240160206040518083038186803b15801561022d57600080fd5b505afa158015610241573d6000803e3d6000fd5b505050506040513d601f19601f820116820180604052508101906102659190611414565b10156102f3576040517f08c379a000000000000000000000000000000000000000000000000000000000815260206004820152602a60248201527f5b496e737572616e63655d3a20696e73756666696369656e74207472616e636860448201527f65204120746f6b656e730000000000000000000000000000000000000000000060648201526084016101af565b6040517f9dc29fac0000000000000000000000000000000000000000000000000000000081523360048201526024810185905273ffffffffffffffffffffffffffffffffffffffff821690639dc29fac90604401600060405180830381600087803b15801561036157600080fd5b505af1158015610375573d6000803e3d6000fd5b505050506b033b2e3c9fd0803ce800000084600754610394919061145c565b61039e91906114c8565b6103a890836114dc565b9150505b811561059e576001546040517f70a0823100000000000000000000000000000000000000000000000000000000815233600482015273ffffffffffffffffffffffffffffffffffffffff90911690839082906370a082319060240160206040518083038186803b15801561041f57600080fd5b505afa158015610433573d6000803e3d6000fd5b505050506040513d601f19601f820116820180604052508101906104579190611414565b10156104e5576040517f08c379a000000000000000000000000000000000000000000000000000000000815260206004820152602a60248201527f5b496e737572616e63655d3a20696e73756666696369656e74207472616e636860448201527f65204220746f6b656e730000000000000000000000000000000000000000000060648201526084016101af565b6040517f9dc29fac0000000000000000000000000000000000000000000000000000000081523360048201526024810184905273ffffffffffffffffffffffffffffffffffffffff821690639dc29fac90604401600060405180830381600087803b15801561055357600080fd5b505af1158015610567573d6000803e3d6000fd5b505050506b033b2e3c9fd0803ce800000083600854610586919061145c565b61059091906114c8565b61059a90836114dc565b9150505b801561064c576040517fa9059cbb0000000000000000000000000000000000000000000000000000000081523360048201526024810182905273ffffffffffffffffffffffffffffffffffffffff85169063a9059cbb90604401602060405180830381600087803b15801561061257600080fd5b505af1158015610626573d6000803e3d6000fd5b505050506040513d601f19601f8201168201806040525081019061064a91906114f4565b505b6040805184815260208101849052908101829052600060608201819052608082015233907f21280d282ce6aa29c649fd1825373d7c77892fac3f1958fd98d5ca52dd82a1979060a00160405180910390a250505050565b600680547fffffffffffffffffffffffffffffffffffffffffffffffffffffffffffff00ff1661010090811791829055900460ff16156106f7576106f2836106eb83856114dc565b6000610118565b505050565b6000546106f2908390839073ffffffffffffffffffffffffffffffffffffffff16610c32565b600680547fffffffffffffffffffffffffffffffffffffffffffffffffffffffffffff00ff1661010090811791829055900460ff1615610767576106f28360006100ae84866114dc565b6001546106f2908390839073ffffffffffffffffffffffffffffffffffffffff16610c32565b600080546040517f70a0823100000000000000000000000000000000000000000000000000000000815273ffffffffffffffffffffffffffffffffffffffff8481166004830152839216906370a082319060240160206040518083038186803b1580156107f957600080fd5b505afa15801561080d573d6000803e3d6000fd5b505050506040513d601f19601f820116820180604052508101906108319190611414565b6001546040517f70a0823100000000000000000000000000000000000000000000000000000000815273ffffffffffffffffffffffffffffffffffffffff8681166004830152909116906370a082319060240160206040518083038186803b15801561089c57600080fd5b505afa1580156108b0573d6000803e3d6000fd5b505050506040513d601f19601f820116820180604052508101906108d49190611414565b91509150915091565b60018111610947576040517f08c379a000000000000000000000000000000000000000000000000000000000815260206004820152601b60248201527f5b496e737572616e63655d3a20616d6f756e7420746f6f206c6f77000000000060448201526064016101af565b610952600282611516565b156109655761096260018261152a565b90505b6040517f23b872dd0000000000000000000000000000000000000000000000000000000081523360048201523060248201526044810182905273ffffffffffffffffffffffffffffffffffffffff8316906323b872dd90606401602060405180830381600087803b1580156109d957600080fd5b505af11580156109ed573d6000803e3d6000fd5b505050506040513d601f19601f82011682018060405250810190610a1191906114f4565b610a9d576040517f08c379a000000000000000000000000000000000000000000000000000000000815260206004820152602c60248201527f5b496e737572616e63655d3a206661696c656420746f207472616e736665722060448201527f617373657420746f6b656e73000000000000000000000000000000000000000060648201526084016101af565b60005473ffffffffffffffffffffffffffffffffffffffff166340c10f1933610ac76002856114c8565b6040517fffffffff0000000000000000000000000000000000000000000000000000000060e085901b16815273ffffffffffffffffffffffffffffffffffffffff90921660048301526024820152604401600060405180830381600087803b158015610b3257600080fd5b505af1158015610b46573d6000803e3d6000fd5b505060015473ffffffffffffffffffffffffffffffffffffffff1691506340c10f19905033610b766002856114c8565b6040517fffffffff0000000000000000000000000000000000000000000000000000000060e085901b16815273ffffffffffffffffffffffffffffffffffffffff90921660048301526024820152604401600060405180830381600087803b158015610be157600080fd5b505af1158015610bf5573d6000803e3d6000fd5b50506040518381523392507fd2563f3d9bdc391ff8de3d837375e67243b3e64aa9f4be4c1942109cab5c2bb9915060200160405180910390a25050565b6000831180610c415750600082115b610ccd576040517f08c379a000000000000000000000000000000000000000000000000000000000815260206004820152603560248201527f5b496e737572616e63655d3a20746f5f6378206f7220746f5f6379206d75737460448201527f2062652067726561746572207468616e207a65726f000000000000000000000060648201526084016101af565b80610cd883856114dc565b6040517f70a0823100000000000000000000000000000000000000000000000000000000815233600482015273ffffffffffffffffffffffffffffffffffffffff8316906370a082319060240160206040518083038186803b158015610d3d57600080fd5b505afa158015610d51573d6000803e3d6000fd5b505050506040513d601f19601f82011682018060405250810190610d759190611414565b1015610e03576040517f08c379a000000000000000000000000000000000000000000000000000000000815260206004820152603760248201527f5b496e737572616e63655d3a2073656e64657220646f6573206e6f7420686f6c60448201527f6420656e6f756768207472616e63686520746f6b656e7300000000000000000060648201526084016101af565b60008054819073ffffffffffffffffffffffffffffffffffffffff85811691161415610e3a57610e3385876114dc565b9150610e6a565b60015473ffffffffffffffffffffffffffffffffffffffff85811691161415610e6a57610e6785876114dc565b90505b60008087156110bf5760035460095473ffffffffffffffffffffffffffffffffffffffff90911690610f68576005546040517f70a082310000000000000000000000000000000000000000000000000000000081523060048201526002919073ffffffffffffffffffffffffffffffffffffffff8416906370a082319060240160206040518083038186803b158015610f0257600080fd5b505afa158015610f16573d6000803e3d6000fd5b505050506040513d601f19601f82011682018060405250810190610f3a9190611414565b610f50906b033b2e3c9fd0803ce800000061145c565b610f5a91906114c8565b610f6491906114c8565b6009555b6040517f9dc29fac000000000000000000000000000000000000000000000000000000008152336004820152602481018a905273ffffffffffffffffffffffffffffffffffffffff871690639dc29fac90604401600060405180830381600087803b158015610fd657600080fd5b505af1158015610fea573d6000803e3d6000fd5b505050506b033b2e3c9fd0803ce80000006009548a611009919061145c565b61101391906114c8565b6040517fa9059cbb0000000000000000000000000000000000000000000000000000000081523360048201526024810182905290935073ffffffffffffffffffffffffffffffffffffffff82169063a9059cbb90604401602060405180830381600087803b15801561108457600080fd5b505af1158015611098573d6000803e3d6000fd5b505050506040513d601f19601f820116820180604052508101906110bc91906114f4565b50505b861561131157600454600a5473ffffffffffffffffffffffffffffffffffffffff909116906111ba576005546040517f70a082310000000000000000000000000000000000000000000000000000000081523060048201526002919073ffffffffffffffffffffffffffffffffffffffff8416906370a082319060240160206040518083038186803b15801561115457600080fd5b505afa158015611168573d6000803e3d6000fd5b505050506040513d601f19601f8201168201806040525081019061118c9190611414565b6111a2906b033b2e3c9fd0803ce800000061145c565b6111ac91906114c8565b6111b691906114c8565b600a555b6040517f9dc29fac0000000000000000000000000000000000000000000000000000000081523360048201526024810189905273ffffffffffffffffffffffffffffffffffffffff871690639dc29fac90604401600060405180830381600087803b15801561122857600080fd5b505af115801561123c573d6000803e3d6000fd5b505050506b033b2e3c9fd0803ce8000000600a548961125b919061145c565b61126591906114c8565b6040517fa9059cbb0000000000000000000000000000000000000000000000000000000081523360048201526024810182905290925073ffffffffffffffffffffffffffffffffffffffff82169063a9059cbb90604401602060405180830381600087803b1580156112d657600080fd5b505af11580156112ea573d6000803e3d6000fd5b505050506040513d601f19601f8201168201806040525081019061130e91906114f4565b50505b60408051858152602081018590526000818301526060810184905260808101839052905133917f21280d282ce6aa29c649fd1825373d7c77892fac3f1958fd98d5ca52dd82a197919081900360a00190a25050505050505050565b803573ffffffffffffffffffffffffffffffffffffffff8116811461139057600080fd5b919050565b6000602082840312156113a757600080fd5b6113b08261136c565b9392505050565b6000806000606084860312156113cc57600080fd5b6113d58461136c565b95602085013595506040909401359392505050565b600080604083850312156113fd57600080fd5b6114068361136c565b946020939093013593505050565b60006020828403121561142657600080fd5b5051919050565b7f4e487b7100000000000000000000000000000000000000000000000000000000600052601160045260246000fd5b6000817fffffffffffffffffffffffffffffffffffffffffffffffffffffffffffffffff04831182151516156114945761149461142d565b500290565b7f4e487b7100000000000000000000000000000000000000000000000000000000600052601260045260246000fd5b6000826114d7576114d7611499565b500490565b600082198211156114ef576114ef61142d565b500190565b60006020828403121561150657600080fd5b815180151581146113b057600080fd5b60008261152557611525611499565b500690565b60008282101561153c5761153c61142d565b50039056fea2646970667358221220974ed9feafba626c57f65ceedb4591844dc1515a0db2bcbf8c28ccab95b78ce864736f6c6343000809003360806040523480156200001157600080fd5b506040516200123338038062001233833981016040819052620000349162000251565b8151829082906200004d906003906020850190620000de565b50805162000063906004906020840190620000de565b505050620000806200007a6200008860201b60201c565b6200008c565b5050620002f8565b3390565b600580546001600160a01b038381166001600160a01b0319831681179093556040519116919082907f8be0079c531659141344cd1fd0a4f28419497f9722a3daafe3b4186f6b6457e090600090a35050565b828054620000ec90620002bb565b90600052602060002090601f0160209004810192826200011057600085556200015b565b82601f106200012b57805160ff19168380011785556200015b565b828001600101855582156200015b579182015b828111156200015b5782518255916020019190600101906200013e565b50620001699291506200016d565b5090565b5b808211156200016957600081556001016200016e565b634e487b7160e01b600052604160045260246000fd5b600082601f830112620001ac57600080fd5b81516001600160401b0380821115620001c957620001c962000184565b604051601f8301601f19908116603f01168101908282118183101715620001f457620001f462000184565b816040528381526020925086838588010111156200021157600080fd5b600091505b8382101562000235578582018301518183018401529082019062000216565b83821115620002475760008385830101525b9695505050505050565b600080604083850312156200026557600080fd5b82516001600160401b03808211156200027d57600080fd5b6200028b868387016200019a565b93506020850151915080821115620002a257600080fd5b50620002b1858286016200019a565b9150509250929050565b600181811c90821680620002d057607f821691505b60208210811415620002f257634e487b7160e01b600052602260045260246000fd5b50919050565b610f2b80620003086000396000f3fe608060405234801561001057600080fd5b50600436106101005760003560e01c8063715018a611610097578063a457c2d711610066578063a457c2d714610223578063a9059cbb14610236578063dd62ed3e14610249578063f2fde38b1461028f57600080fd5b8063715018a6146101d85780638da5cb5b146101e057806395d89b41146102085780639dc29fac1461021057600080fd5b8063313ce567116100d3578063313ce5671461016b578063395093511461017a57806340c10f191461018d57806370a08231146101a257600080fd5b806306fdde0314610105578063095ea7b31461012357806318160ddd1461014657806323b872dd14610158575b600080fd5b61010d6102a2565b60405161011a9190610d0b565b60405180910390f35b610136610131366004610da7565b610334565b604051901515815260200161011a565b6002545b60405190815260200161011a565b610136610166366004610dd1565b61034c565b6040516012815260200161011a565b610136610188366004610da7565b610370565b6101a061019b366004610da7565b6103bc565b005b61014a6101b0366004610e0d565b73ffffffffffffffffffffffffffffffffffffffff1660009081526020819052604090205490565b6101a06103d2565b60055460405173ffffffffffffffffffffffffffffffffffffffff909116815260200161011a565b61010d6103e6565b6101a061021e366004610da7565b6103f5565b610136610231366004610da7565b610407565b610136610244366004610da7565b6104c3565b61014a610257366004610e2f565b73ffffffffffffffffffffffffffffffffffffffff918216600090815260016020908152604080832093909416825291909152205490565b6101a061029d366004610e0d565b6104d1565b6060600380546102b190610e62565b80601f01602080910402602001604051908101604052809291908181526020018280546102dd90610e62565b801561032a5780601f106102ff5761010080835404028352916020019161032a565b820191906000526020600020905b81548152906001019060200180831161030d57829003601f168201915b5050505050905090565b60003361034281858561056e565b5060019392505050565b60003361035a8582856106ee565b6103658585856107ab565b506001949350505050565b33600081815260016020908152604080832073ffffffffffffffffffffffffffffffffffffffff8716845290915281205490919061034290829086906103b7908790610eb6565b61056e565b6103c46109cc565b6103ce8282610a33565b5050565b6103da6109cc565b6103e46000610b0c565b565b6060600480546102b190610e62565b6103fd6109cc565b6103ce8282610b83565b33600081815260016020908152604080832073ffffffffffffffffffffffffffffffffffffffff87168452909152812054909190838110156104b65760405162461bcd60e51b815260206004820152602560248201527f45524332303a2064656372656173656420616c6c6f77616e63652062656c6f7760448201527f207a65726f00000000000000000000000000000000000000000000000000000060648201526084015b60405180910390fd5b610365828686840361056e565b6000336103428185856107ab565b6104d96109cc565b73ffffffffffffffffffffffffffffffffffffffff81166105625760405162461bcd60e51b815260206004820152602660248201527f4f776e61626c653a206e6577206f776e657220697320746865207a65726f206160448201527f646472657373000000000000000000000000000000000000000000000000000060648201526084016104ad565b61056b81610b0c565b50565b73ffffffffffffffffffffffffffffffffffffffff83166105f65760405162461bcd60e51b8152602060048201526024808201527f45524332303a20617070726f76652066726f6d20746865207a65726f2061646460448201527f726573730000000000000000000000000000000000000000000000000000000060648201526084016104ad565b73ffffffffffffffffffffffffffffffffffffffff821661067f5760405162461bcd60e51b815260206004820152602260248201527f45524332303a20617070726f766520746f20746865207a65726f20616464726560448201527f737300000000000000000000000000000000000000000000000000000000000060648201526084016104ad565b73ffffffffffffffffffffffffffffffffffffffff83811660008181526001602090815260408083209487168084529482529182902085905590518481527f8c5be1e5ebec7d5bd14f71427d1e84f3dd0314c0f7b2291e5b200ac8c7c3b92591015b60405180910390a3505050565b73ffffffffffffffffffffffffffffffffffffffff8381166000908152600160209081526040808320938616835292905220547fffffffffffffffffffffffffffffffffffffffffffffffffffffffffffffffff81146107a557818110156107985760405162461bcd60e51b815260206004820152601d60248201527f45524332303a20696e73756666696369656e7420616c6c6f77616e636500000060448201526064016104ad565b6107a5848484840361056e565b50505050565b73ffffffffffffffffffffffffffffffffffffffff83166108345760405162461bcd60e51b815260206004820152602560248201527f45524332303a207472616e736665722066726f6d20746865207a65726f20616460448201527f647265737300000000000000000000000000000000000000000000000000000060648201526084016104ad565b73ffffffffffffffffffffffffffffffffffffffff82166108bd5760405162461bcd60e51b815260206004820152602360248201527f45524332303a207472616e7366657220746f20746865207a65726f206164647260448201527f657373000000000000000000000000000000000000000000000000000000000060648201526084016104ad565b73ffffffffffffffffffffffffffffffffffffffff8316600090815260208190526040902054818110156109595760405162461bcd60e51b815260206004820152602660248201527f45524332303a207472616e7366657220616d6f756e742065786365656473206260448201527f616c616e6365000000000000000000000000000000000000000000000000000060648201526084016104ad565b73ffffffffffffffffffffffffffffffffffffffff848116600081815260208181526040808320878703905593871680835291849020805487019055925185815290927fddf252ad1be2c89b69c2b068fc378daa952ba7f163c4a11628f55a4df523b3ef910160405180910390a36107a5565b60055473ffffffffffffffffffffffffffffffffffffffff1633146103e45760405162461bcd60e51b815260206004820181905260248201527f4f776e61626c653a2063616c6c6572206973206e6f7420746865206f776e657260448201526064016104ad565b73ffffffffffffffffffffffffffffffffffffffff8216610a965760405162461bcd60e51b815260206004820152601f60248201527f45524332303a206d696e7420746f20746865207a65726f20616464726573730060448201526064016104ad565b8060026000828254610aa89190610eb6565b909155505073ffffffffffffffffffffffffffffffffffffffff8216600081815260208181526040808320805486019055518481527fddf252ad1be2c89b69c2b068fc378daa952ba7f163c4a11628f55a4df523b3ef910160405180910390a35050565b6005805473ffffffffffffffffffffffffffffffffffffffff8381167fffffffffffffffffffffffff0000000000000000000000000000000000000000831681179093556040519116919082907f8be0079c531659141344cd1fd0a4f28419497f9722a3daafe3b4186f6b6457e090600090a35050565b73ffffffffffffffffffffffffffffffffffffffff8216610c0c5760405162461bcd60e51b815260206004820152602160248201527f45524332303a206275726e2066726f6d20746865207a65726f2061646472657360448201527f730000000000000000000000000000000000000000000000000000000000000060648201526084016104ad565b73ffffffffffffffffffffffffffffffffffffffff821660009081526020819052604090205481811015610ca85760405162461bcd60e51b815260206004820152602260248201527f45524332303a206275726e20616d6f756e7420657863656564732062616c616e60448201527f636500000000000000000000000000000000000000000000000000000000000060648201526084016104ad565b73ffffffffffffffffffffffffffffffffffffffff83166000818152602081815260408083208686039055600280548790039055518581529192917fddf252ad1be2c89b69c2b068fc378daa952ba7f163c4a11628f55a4df523b3ef91016106e1565b600060208083528351808285015260005b81811015610d3857858101830151858201604001528201610d1c565b81811115610d4a576000604083870101525b50601f017fffffffffffffffffffffffffffffffffffffffffffffffffffffffffffffffe016929092016040019392505050565b803573ffffffffffffffffffffffffffffffffffffffff81168114610da257600080fd5b919050565b60008060408385031215610dba57600080fd5b610dc383610d7e565b946020939093013593505050565b600080600060608486031215610de657600080fd5b610def84610d7e565b9250610dfd60208501610d7e565b9150604084013590509250925092565b600060208284031215610e1f57600080fd5b610e2882610d7e565b9392505050565b60008060408385031215610e4257600080fd5b610e4b83610d7e565b9150610e5960208401610d7e565b90509250929050565b600181811c90821680610e7657607f821691505b60208210811415610eb0577f4e487b7100000000000000000000000000000000000000000000000000000000600052602260045260246000fd5b50919050565b60008219821115610ef0577f4e487b7100000000000000000000000000000000000000000000000000000000600052601160045260246000fd5b50019056fea264697066735822122061ed9a532e4298fcdc3b5644338ddb0a0ebffc66b409e9a4d509bd10b0a2702764736f6c63430008090033",
  "linkReferences": {},
  "deployedLinkReferences": {}
}